:060000000210F50212F1EE
:03000B0002133DA0
:030013000213894C
:03001B000213D5F8
:03002300021421A3
:03002B0002146D4F
:030033000214B9FB
:03003B00021505A6
:0300430002155152
:03004B0002159DFE
:030053000215E9AA
:03005B0002163555
:0300630002168101
:10006B000216CDE59A30E003539AFEE59AC313309E
:0B007B00E005539AFDC20F2202171986
:03008B00021765F4
:030093000217B1A0
:03009B000217FD4C
:0300A300021849F7
:1000AB00021895C2D530F707B2D563F0FF05F030D3
:1000BB00E70CB2D5F4048463F0FF05F080018430C3
:1000CB00D502F40422BB010689828A83E022500206
:1000DB00E722BBFE02E32289828A83E49322BB01DF
:1000EB000CE58229F582E5833AF583E0225006E997
:1000FB002582F8E622BBFE06E92582F8E222E5829C
:10010B0029F582E5833AF583E49322BB01068982C4
:10011B008A83F0225002F722BBFE01F322BC000BB4
:10012B00BE0029EF8DF084FFADF022E4CCF875F022
:10013B0008EF2FFFEE33FEEC33FCEE9DEC98400501
:10014B00FCEE9DFE0FD5F0E9E4CEFD22EDF8F5F0C7
:10015B00EE8420D21CFEADF075F008EF2FFFED33CF
:10016B00FD4007985006D5F0F222C398FD0FD5F04D
:10017B00EA22C2D5EC30E709B2D5E4C39DFDE49C7D
:10018B00FCEE30E715B2D5E4C39FFFE49EFE1201EF
:10019B0028C3E49DFDE49CFC800312012830D507A5
:1001AB00C3E49FFFE49EFE22A3F8E0C5F025F0F028
:1001BB00E582158270021583E0C838F0E822E88FDB
:1001CB00F0A4CC8BF0A42CFCE98EF0A42CFC8AF0D0
:1001DB00EDA42CFCEA8EF0A4CDA8F08BF0A42DCCD2
:1001EB003825F0FDE98FF0A42CCD35F0FCEB8EF02B
:1001FB00A4FEA9F0EB8FF0A4CFC5F02ECD39FEE411
:10020B003CFCEAA42DCE35F0FDE43CFC2275F00855
:10021B00758200EF2FFFEE33FECD33CDCC33CCC543
:10022B008233C5829BED9AEC99E58298400CF5825E
:10023B00EE9BFEED9AFDEC99FC0FD5F0D6E4CEFBD0
:10024B00E4CDFAE4CCF9A88222B800C1B90059BABE
:10025B00002DEC8BF084CFCECDFCE5F0CBF97818EC
:10026B00EF2FFFEE33FEED33FDEC33FCEB33FB10E6
:10027B00D703994004EB99FB0FD8E5E4F9FA227800
:10028B0018EF2FFFEE33FEED33FDEC33FCC933C912
:10029B0010D7059BE99A4007EC9BFCE99AF90FD81C
:1002AB00E0E4C9FAE4CCFB2275F010EF2FFFEE333C
:1002BB00FEED33FDCC33CCC833C810D7079BEC9A7B
:1002CB00E899400AED9BFDEC9AFCE899F80FD5F004
:1002DB00DAE4CDFBE4CCFAE4C8F922EB9FF5F0EAC3
:1002EB009E42F0E99D42F0E89C45F022E8600FEC5D
:1002FB00C313FCED13FDEE13FEEF13FFD8F122EC4D
:10030B00F0A3EDF0A3EEF0A3EFF022A8828583F02B
:10031B00D083D08212032D12032D12032D12032D25
:10032B00E473E493A3C583C5F0C583C8C582C8F045
:10033B00A3C583C5F0C583C8C582C8228A838982B9
:10034B00E473EC8EF0A4CCC5F0CCCDF8EFA4CEC505
:10035B00F02DFDE43CFCE8A42EC8C5F03DFDE43CCB
:10036B00FCEFA4FFE5F028FEE43DFDE43CFC22E7B6
:10037B0009F608DFFA8046E709F208DFFA803E88C3
:10038B00828C83E709F0A3DFFA8032E309F608DFFA
:10039B00FA8076E309F208DFFA806E88828C83E3B9
:1003AB0009F0A3DFFA806289828A83E0A3F608DF73
:1003BB00FA805689828A83E0A3F208DFFA804A80AA
:1003CB00D280FA80C680D4806580F2803180108024
:1003DB00A680EA809A80A880DA80E280CA80318980
:1003EB00828A8363A20188828C8363A201E493A334
:1003FB0063A201F0A363A201DFF3DEF1800B89821C
:10040B008A83E493A3F608DFF9ECFAA9F0EDFB225B
:10041B0089828A8363A20188828C8363A201E0A311
:10042B0063A201F0A363A201DFF4DEF280DB898219
:10043B008A83E493A3F208DFF980CE88F0EF6001A2
:10044B000E4E60C588F0ED2402B4040050BBF5825B
:10045B00EB2402B4040050B123234582239003CA3A
:10046B0073F8E0FBA3A3E0F925F0F0E582158270A9
:10047B00021583E0FA38F022EBF0A3EAF0A3E9F0DF
:10048B0022D083D082F8E4937012740193700DA381
:10049B00A393F8740193F5828883E47374029368D1
:1004AB0060EFA3A3A380DFE518244CF582E43400AE
:1004BB00F583E005182290004930070390004CE4C7
:1004CB0075F00112046C0200D02000E97F2ED200DF
:1004DB008018EF540F2490D43440D4FF30040BEF2A
:1004EB0024BFB41A0050032461FFE51960021519EB
:1004FB00051CE51C7002051B30070E900049E475C6
:10050B00F00112046CEF0201160219D47403D20726
:10051B008003E4C207F518900049120483E4F5192F
:10052B00F51BF51CE51960077F201204F580F575A6
:10053B001AFFC201C200C202C203C205C206C20830
:10054B001204C1FF700D3007057F00120506AF1CAA
:10055B00AE1B22B4255FC2D5C2041204C1FF24D046
:10056B00B40A00501A75F00A781930D50508B6FF91
:10057B000106C6A426F620D5047002D20380D92426
:10058B00CFB41A00EF5004C2E5D204020707D20120
:10059B0080C6D20080C0D20280BCD2D580BAD20530
:1005AB0080B47F201204F52002077401B5190040B6
:1005BB00F11204B2FF1204F502052FD208D2068005
:1005CB00951204B2FB1204B2FA1204B2F94A4B7040
:1005DB000679D87A077BFF20022EE519602A7E0068
:1005EB008E827583001200E960060EEE651A70F0BC
:1005FB00C2D5EBC0E0EAC0E0E9C0E0EE12074ED096
:10060B00E0F9D0E0FAD0E0FB1200D0FF60AAEBC01B
:10061B00E0EAC0E0E9C0E01204F5D0E02401F9D033
:10062B00E03400FAD0E0FBE51A0460DCD51AD9807F
:10063B00877BFF7A07794AD202809C7910800279F6
:10064B0008C206C2088008D2D5790A8004790AC28A
:10065B00D5E51A047002F51AE4FAFDFEFF1204B296
:10066B00FC7B082001131204B2FD7B1030000A1230
:10067B0004B2FE1204B2FF7B20EC3382D592D5502C
:10068B0013C3E43000069FFFE49EFEE42001039DAC
:10069B00FDE49CFCE4CBF8C201EC700CCFCECDCCCE
:1006AB00E824F8F870F38017C3EF33FFEE33FEED59
:1006BB0033FDEC33FCEB33FB994002FB0FD8E9EB3A
:1006CB00300105F8D0E0C448B201C0E00AEC4D4E51
:1006DB004F78207B0070C2EAB51A0040BCC0E01214
:1006EB000750D0F0D0E0200104C4C0E0C4B201C078
:1006FB00F01204DED0F0D5F0EB02052F12048C05BE
:10070B00CC53064658059D4C059942064A4F065256
:10071B004406524905B243065855063C46063C452D
:10072B00063C4707F85005A12D05A52E05C82B053E
:10073B00A92305C62007E12A056148000005C03F33
:10074B003F3F00790AA2D5200314300509B91002E6
:10075B000404B9080104A2D52006025001042002AA
:10076B00689202B519005034C0E07F203003197F26
:10077B0030A20272067205500F1207A7C202C20600
:10078B00C205C2087F30800F300503E9C0E01204B8
:10079B00F5300503D0E0F9D0E0B519CC3005177F63
:1007AB0030B9100C1204F57F583004077F788003A2
:1007BB00B908031204F53002057F2D0204F57F20E2
:1007CB002008F87F2B2006F322920280CF286E752B
:1007DB006C6C2900D2011204B23001F8C2017819F5
:1007EB0030D50108F60205612D504349581204B269
:1007FB002403B405004001E49007F3931204E6745C
:10080B003A1204E6D20375190402064690004AED2B
:10081B00F0A3EBF0EF14700302094214700302090A
:10082B0097147003020A0A24036003020A789000EB
:10083B004AE0FF900085F053A23FEF703053873FA3
:10084B00759850121233700D1211E1C333CE33CEA3
:10085B00D8F902091112122C6003020932438E01DE
:10086B001211E4C333CE33CED8F902092A90004AD1
:10087B00E0FF6401600AEF64026005EF64037050EF
:10088B001211F2600512121270181211F270055348
:10089B00873F8008E587448054BFF5877598980299
:1008AB00093253873F53873F7598D8121233700C18
:1008BB001211E1C333CE33CED8F9804A12122C7009
:1008CB0066438E011211E4C333CE33CED8F9804F79
:1008DB001211F2600512121270171211F2700553F9
:1008EB00873F8008E587448054BFF58775989080D3
:1008FB003653873F7598D012123370111211E1C322
:10090B0033CE33CED8F91211B47F01801712122CCB
:10091B007015438E011211E4C333CE33CED8F912C6
:10092B0011B47F0212123A7BFF7A1979F57F041208
:10093B000E61D2AC020A7890004AE0FF900086F07C
:10094B0043BA01EF7005759A108016EF64016009C8
:10095B00EF64026004EFB40305759A988003759AEF
:10096B009012122C6003020A7A1211E4C333CE33B5
:10097B00CED8F91211B47F0212123A7BFF7A0079AA
:10098B006E7F08120E6143AF01020A7890004AE0B5
:10099B00FF900087F053BAFDEF700575AC10801611
:1009AB00EF64016009EF64026004EFB4030575ACFA
:1009BB0098800375AC9012122C701453ACBF1211AB
:1009CB00E4C333CE33CED8F91211B47F02801D901D
:1009DB00004BE064036003020A7A43AC401211E45B
:1009EB00C333CE33CED8F91211B47F0312123A7B34
:1009FB00FF7A1979857F0F120E6143AF08806E90D5
:100A0B00004AE0FF900088F053BAFBEF7005758445
:100A1B00108016EF64016009EF64026004EFB40309
:100A2B0005758498800375849012122C701453846E
:100A3B00BF1211E4C333CE33CED8F91211B47F02F7
:100A4B00801A90004BE0640470254384401211E43B
:100A5B00C333CE33CED8F91211B47F0412123A7BC2
:100A6B00FF7A19799A7F10120E6143AF10D2AF2221
:100A7B00900049EBF0A3EAF0A3E9F0E4F518AE0718
:100A8B001FEE7003020BE0900049E0FBA3E475F04E
:100A9B00011201B3A9F0FA1200D0F51830E71312C6
:100AAB0019EE000000000000000000000000C2B2C0
:100ABB008009D2B2000000001219E500000000000E
:100ACB0000E51830E7131219EE00000000000000DB
:100ADB000000000000C2B28009D2B2000000001278
:100AEB0019E5000000000000E51830E7131219EEBD
:100AFB00000000000000000000000000C2B28009EE
:100B0B00D2B2000000001219E5000000000000E561
:100B1B001830E7131219EE0000000000000000006F
:100B2B00000000C2B28009D2B2000000001219E529
:100B3B00000000000000E51830E7131219EE00006A
:100B4B0000000000000000000000C2B28009D2B219
:100B5B00000000001219E5000000000000E518304D
:100B6B00E7131219EE000000000000000000000067
:100B7B0000C2B28009D2B2000000001219E50000D9
:100B8B0000000000E51830E7131219EE000000001A
:100B9B000000000000000000C2B28009D2B20000C9
:100BAB0000001219E5000000000000E51830E71303
:100BBB001219EE000000000000000000000000C24F
:100BCB00B28009D2B2000000001219E5000000004B
:100BDB000000020A8922EF146059147003020C8E74
:100BEB00147003020CDE24036003020D2E200EFD95
:100BFB00900085E0FF70028035EFB4010CED30D032
:100C0B0004C29B8002D29B8025900085E0FFB4023A
:100C1B000CED30D004D29B8002C29B8011EFB40349
:100C2B0004D29B8009900085E0B40407C29BD20ECE
:100C3B008D9922200FFD900086E0FF7002803FEF20
:100C4B00B4010EED30D005539AF78003439A088018
:100C5B002D900086E0FFB4020EED30D005439A08CC
:100C6B008003539AF78017EFB40305439A08800E5D
:100C7B00900086E064046003020D2E539AF7D20FA6
:100C8B008D9B222010FD900087E0FF7002803FEFCC
:100C9B00B4010EED30D00553ACF7800343AC0880A4
:100CAB002D900087E0FFB4020EED30D00543AC0869
:100CBB00800353ACF78017EFB4030843AC08D21191
:100CCB008DAD22900087E06404705853ACF7D210BE
:100CDB008DAD222011FD900088E0FF7002802FEF78
:100CEB00B4010EED30D0055384F7800343840880A4
:100CFB001D900088E0FFB4020EED30D00543840850
:100D0B0080035384F78007EFB40308438408D211A0
:100D1B008D8522900088E0B404095384F7D211AF7B
:100D2B00058F85227B007AE179F57805120254ACA8
:100D3B0000AD01AE02AF037B807A967998780012F2
:100D4B000254AC00AD01AE02AF037B407A42790F87
:100D5B007800120254AC00AD01AE02AF037BA07A57
:100D6B008679017800120254AC00AD01AE02AF03DC
:100D7B00E47B107A27F9F8120254AC00AD01AE02F5
:100D8B00AF03E47BE87A03F9F8120254AC00AD012F
:100D9B00AE02AF03E47B64FAF9F8120254AC00AD77
:100DAB0001AE02AF0322E47B0AFAF9F8120254EB0C
:100DBB002430FF021A16E4FAF9F8900000E0FCA3C5
:100DCB00E0FDA3E0FEA3E0FF020254C2C2C2C1EFEA
:100DDB00139280EFC313139281EF1313543F1392AB
:100DEB0082EF131313541F139283EFC4540F1392F8
:100DFB0084EFC4135407139285EFC41313540313D6
:100E0B009286EFC41313135401139287D2C122D2CB
:100E1B0090C2C1C2C2C2C4C280C281C282C283C2DA
:100E2B0084C285C286C2877F0F7E00227F647E00CC
:100E3B00CFCDCFCECCCE227F38121A0D7F057E00C0
:100E4B0022900000E0FBA3E0FAA3E0F90200D0AC93
:100E5B0007ECD3940222900050EBF0A3EAF0A3E945
:100E6B00F0EFB414004003020F61900E7CF82828B9
:100E7B0073020EB8020EC1020ECA020ED3020EDBB3
:100E8B00020EE3020EEB020EF3020EFB020F030245
:100E9B000F0B020F13020F1B020F23020F2B020F5C
:100EAB0033020F3B020F43020F4B020F531219AFCA
:100EBB0090001E020F591219AF90002D020F5912FC
:100ECB0019AF900021020F591219AF900030807E9C
:100EDB001219AF90000C80761219AF900000806E43
:100EEB001219AF90000680661219AF900003805E56
:100EFB001219AF90000F80561219AF900009804E57
:100F0B001219AF90002480461219AF900027803E33
:100F1B001219AF90003380361219AF90001B802E40
:100F2B001219AF90002A80261219AF900012801E62
:100F3B001219AF90001880161219AF900036800E60
:100F4B001219AF90003980061219AF900015C9F035
:100F5B00A3EAF0A3E9F022783C7C007D017BFF7AC9
:100F6B001279E57E007F0C120446E4900048F09065
:100F7B00004C120316000025807B02E4FDFF1208D3
:100F8B00171219C37FE87E031219697BFF7A127956
:100F9B009F12051D7BFF7A1279C090004C740CF0E8
:100FAB0012051D12196212101D90003C12194812E5
:100FBB0019567F057E00121969A3E014F0E0D39453
:100FCB000050E312196212101DE490003CF0A312C2
:100FDB001948A3F0E4A3F0121029E0D3940050E6D3
:100FEB00121962900048E0D3940040B77B017A005D
:100FFB00793C7F0C120A7B90003CE004F0E4A3F0F8
:10100B00A3E014F0E4121959A3121955E412102994
:10101B0080D17B017A00793C7F0C120A7B22A3F0F2
:10102B007F05FE121969A3E014F02248007200003C
:10103B0000000000000046007A00000000000010D5
:10104B00080000000000000000000000000000008D
:10105B0000042300000000042B0000000004270004
:10106B00000000043300000000042F000000000407
:10107B0037000000000241000002470000023B0065
:10108B00000243000002490000023D00000245003F
:10109B0000024B0000023F00000257000002590003
:1010AB0000025B0000025D0000025F0000026100B5
:1010BB000002630000026500000267000002690085
:1010CB0000C109C10AC10BC10CC10D024D000002C8
:1010DB004F0000025100000253000002550000C1F6
:1010EB000EC10FC110C111C11200787FE4F6D8FDFB
:1010FB0075816A758E0175940075930075920075F4
:10110B00910075960075950075B20075B10075B4B8
:10111B000075B30075CA0075C90075CC0075CB009E
:10112B0075E20075E10002116F020F62E493A3F800
:10113B00E493A34003F68001F208DFF48029E493E3
:10114B00A3F85407240CC8C333C4540F4420C883DA
:10115B004004F456800146F6DFE4800B01020408DC
:10116B0010204080901036E47E019360BCA3FF54A6
:10117B003F30E509541FFEE493A360010ECF54C02A
:10118B0025E060A840B8E493A3FAE493A3F8E493B2
:10119B00A3C8C582C8CAC583CAF0A3C8C582C8CABA
:1011AB00C583CADFE9DEE780BEFFE4FCFD90004C9F
:1011BB00E0F8A3E0F9A3E0FAA3E0FB1201C9A8044D
:1011CB00A905AA06AB077FC07E0E7D167C02120214
:1011DB0054AD07AC0622538EFEE59754072401FF4E
:1011EB00E433FEEF780222E5975407C4131354033C
:1011FB00FFE4FCFDFE90004CE0F8A3E0F9A3E0FA5D
:10120B00A3E0FBC30202E6E5975407C4135407FFA0
:10121B00E4FCFDFE90004CE0F8A3A3A3E0C30202A4
:10122B00E690004BE064022290004BE06401221236
:10123B001A027010C28D438E805389F08D8AECF5A3
:10124B008CD28C22EF64017010C28F438E40538975
:10125B000F8D8BECF58DD28E22EF6402700F438EC7
:10126B00048DD7ECF5D6538EF7438E1022EF640323
:10127B00700F43D1028DD5ECF5D453D1FB43D1087C
:10128B0022EFB4040E43D1208DD3ECF5D253D1BF52
:10129B0043D18022496E6974204F4B202C207379E7
:1012AB007374656D2069732073746172742E2E2EA6
:1012BB000D0A0D0A00546865206C656E6774682012
:1012CB006F6620617272617920415B5D5B5D2069A5
:1012DB0073202562640D0A0D0A00FF0000FF000059
:1012EB0000FF000000FFC0E0C0F0C083C08263A21B
:1012FB0001C083C082C0D075D000C000C001C00245
:10130B00C003C004C005C006C00790001E1219BA66
:10131B00D007D006D005D004D003D002D001D00026
:10132B00D0D0D082D08363A201D082D083D0F0D032
:10133B00E032C0E0C0F0C083C08263A201C083C0B2
:10134B0082C0D075D000C000C001C002C003C00471
:10135B00C005C006C00790002D1219BAD007D006E1
:10136B00D005D004D003D002D001D000D0D0D08291
:10137B00D08363A201D082D083D0F0D0E032C0E022
:10138B00C0F0C083C08263A201C083C082C0D0758D
:10139B00D000C000C001C002C003C004C005C0061D
:1013AB00C0079000211219BAD007D006D005D0047F
:1013BB00D003D002D001D000D0D0D082D08363A292
:1013CB0001D082D083D0F0D0E032C0E0C0F0C08337
:1013DB00C08263A201C083C082C0D075D000C000A0
:1013EB00C001C002C003C004C005C006C007900006
:1013FB00301219BAD007D006D005D004D003D002D2
:10140B00D001D000D0D0D082D08363A201D082D0C3
:10141B0083D0F0D0E032C0E0C0F0C083C08263A2C2
:10142B0001C083C082C0D075D000C000C001C00213
:10143B00C003C004C005C006C00790000C1219BA47
:10144B00D007D006D005D004D003D002D001D000F5
:10145B00D0D0D082D08363A201D082D083D0F0D001
:10146B00E032C0E0C0F0C083C08263A201C083C081
:10147B0082C0D075D000C000C001C002C003C00440
:10148B00C005C006C0079000001219BAD007D006DD
:10149B00D005D004D003D002D001D000D0D0D08260
:1014AB00D08363A201D082D083D0F0D0E032C0E0F1
:1014BB00C0F0C083C08263A201C083C082C0D0755C
:1014CB00D000C000C001C002C003C004C005C006EC
:1014DB00C0079000061219BAD007D006D005D00469
:1014EB00D003D002D001D000D0D0D082D08363A261
:1014FB0001D082D083D0F0D0E032C0E0C0F0C08306
:10150B00C08263A201C083C082C0D075D000C0006E
:10151B00C001C002C003C004C005C006C0079000D4
:10152B00031219BAD007D006D005D004D003D002CD
:10153B00D001D000D0D0D082D08363A201D082D092
:10154B0083D0F0D0E032C0E0C0F0C083C08263A291
:10155B0001C083C082C0D075D000C000C001C002E2
:10156B00C003C004C005C006C00790000F1219BA13
:10157B00D007D006D005D004D003D002D001D000C4
:10158B00D0D0D082D08363A201D082D083D0F0D0D0
:10159B00E032C0E0C0F0C083C08263A201C083C050
:1015AB0082C0D075D000C000C001C002C003C0040F
:1015BB00C005C006C0079000091219BAD007D006A3
:1015CB00D005D004D003D002D001D000D0D0D0822F
:1015DB00D08363A201D082D083D0F0D0E032C0E0C0
:1015EB00C0F0C083C08263A201C083C082C0D0752B
:1015FB00D000C000C001C002C003C004C005C006BB
:10160B00C0079000241219BAD007D006D005D00419
:10161B00D003D002D001D000D0D0D082D08363A22F
:10162B0001D082D083D0F0D0E032C0E0C0F0C083D4
:10163B00C08263A201C083C082C0D075D000C0003D
:10164B00C001C002C003C004C005C006C0079000A3
:10165B00271219BAD007D006D005D004D003D00278
:10166B00D001D000D0D0D082D08363A201D082D061
:10167B0083D0F0D0E032C0E0C0F0C083C08263A260
:10168B0001C083C082C0D075D000C000C001C002B1
:10169B00C003C004C005C006C0079000331219BABE
:1016AB00D007D006D005D004D003D002D001D00093
:1016BB00D0D0D082D08363A201D082D083D0F0D09F
:1016CB00E032C0E0C0F0C083C08263A201C083C01F
:1016DB0082C0D075D000C000C001C002C003C004DE
:1016EB00C005C006C00790001B1219BAD007D00660
:1016FB00D005D004D003D002D001D000D0D0D082FE
:10170B00D08363A201D082D083D0F0D0E032C0E08E
:10171B00C0F0C083C08263A201C083C082C0D075F9
:10172B00D000C000C001C002C003C004C005C00689
:10173B00C00790002A1219BAD007D006D005D004E2
:10174B00D003D002D001D000D0D0D082D08363A2FE
:10175B0001D082D083D0F0D0E032C0E0C0F0C083A3
:10176B00C08263A201C083C082C0D075D000C0000C
:10177B00C001C002C003C004C005C006C007900072
:10178B00121219BAD007D006D005D004D003D0025C
:10179B00D001D000D0D0D082D08363A201D082D030
:1017AB0083D0F0D0E032C0E0C0F0C083C08263A22F
:1017BB0001C083C082C0D075D000C000C001C00280
:1017CB00C003C004C005C006C0079000181219BAA8
:1017DB00D007D006D005D004D003D002D001D00062
:1017EB00D0D0D082D08363A201D082D083D0F0D06E
:1017FB00E032C0E0C0F0C083C08263A201C083C0EE
:10180B0082C0D075D000C000C001C002C003C004AC
:10181B00C005C006C0079000361219BAD007D00613
:10182B00D005D004D003D002D001D000D0D0D082CC
:10183B00D08363A201D082D083D0F0D0E032C0E05D
:10184B00C0F0C083C08263A201C083C082C0D075C8
:10185B00D000C000C001C002C003C004C005C00658
:10186B00C0079000391219BAD007D006D005D004A2
:10187B00D003D002D001D000D0D0D082D08363A2CD
:10188B0001D082D083D0F0D0E032C0E0C0F0C08372
:10189B00C08263A201C083C082C0D075D000C000DB
:1018AB00C001C002C003C004C005C006C007900041
:1018BB00151219BAD007D006D005D004D003D00228
:1018CB00D001D000D0D0D082D08363A201D082D0FF
:1018DB0083D0F0D0E032C2D5E830E70FB2D5E4C305
:1018EB009BFBE49AFAE499F9E498F8EC30E717B229
:1018FB00D5121917120254E4C39BFBE49AFAE4992C
:10190B00F9E498F8800312025430D50DE4C39FFF1D
:10191B00E49EFEE49DFDE49CFC22EF4E601EEF1F57
:10192B0070011E144E601500000000000000000046
:10193B000000000000000000000080E222E014F034
:10194B00A3E004F0E4A3F0A374FFF0E4A3F0A3F08E
:10195B00A3F0A374FFF02290004874FFF022AD07B0
:10196B00AC06ED4C6013ED1DAE0470011C4E60090E
:10197B007FE87E0312192580ED22E5AC30E003539E
:10198B00ACFEE5ACC31330E00553ACFDC21022E551
:10199B008430E0035384FEE584C31330E0055384A5
:1019AB00FDC21122900050E0F9A3E0FAA3E022A3BC
:1019BB00E0FAA3E0F9020347C2B27F327E001219AC
:1019CB00257F0130B2027F0022900071EFF0FDE421
:1019DB00FF120BE1900071E0FF22C2B2E51825E087
:1019EB00F51822D2B225E0F51822309802C29830B1
:1019FB009904C299C20E22C374FF9DFD74FF9CFC17
:101A0B00EF22C2C4120DD600C2C122D2C4120DD60F
:041A1B0000C2C12222
:00000001FF
