:0600000002053A02060AA7
:03000B00020648A2
:030013000206865C
:03001B000206C416
:03002300020702CF
:03002B0002074089
:0300330002077E43
:03003B000207BCFD
:030043000207FAB7
:03004B0002083870
:030053000208762A
:03005B000208B4E4
:030063000208F29E
:10006B00020930900000E0F9A3E0FAA3E022A3E03C
:07007B00FAA3E0F902031EE5
:0300830002096E01
:03008B000209ACBB
:030093000209EA75
:03009B00020A282E
:0300A300020A66E8
:1000AB00020AA4C2D530F707B2D563F0FF05F030D2
:1000BB00E70CB2D5F4048463F0FF05F080018430C3
:1000CB00D502F40422BB010689828A83E022500206
:1000DB00E722BBFE02E32289828A83E49322BC00DF
:1000EB000BBE0029EF8DF084FFADF022E4CCF87548
:1000FB00F008EF2FFFEE33FEEC33FCEE9DEC984057
:10010B0005FCEE9DFE0FD5F0E9E4CEFD22EDF8F5F2
:10011B00F0EE8420D21CFEADF075F008EF2FFFED52
:10012B0033FD4007985006D5F0F222C398FD0FD54A
:10013B00F0EA22C2D5EC30E709B2D5E4C39DFDE469
:10014B009CFCEE30E715B2D5E4C39FFFE49EFE1294
:10015B0000E9C3E49DFDE49CFC80031200E930D56B
:10016B0007C3E49FFFE49EFE22C5F0F8A3E028F04E
:10017B00C5F0F8E582158270021583E038F022A3F2
:10018B00F8E0C5F025F0F0E582158270021583E0EA
:10019B00C838F0E822E88FF0A4CC8BF0A42CFCE953
:1001AB008EF0A42CFC8AF0EDA42CFCEA8EF0A4CDEE
:1001BB00A8F08BF0A42DCC3825F0FDE98FF0A42C02
:1001CB00CD35F0FCEB8EF0A4FEA9F0EB8FF0A4CFB5
:1001DB00C5F02ECD39FEE43CFCEAA42DCE35F0FD66
:1001EB00E43CFC2275F008758200EF2FFFEE33FE26
:1001FB00CD33CDCC33CCC58233C5829BED9AEC99F4
:10020B00E58298400CF582EE9BFEED9AFDEC99FC95
:10021B000FD5F0D6E4CEFBE4CDFAE4CCF9A88222DC
:10022B00B800C1B90059BA002DEC8BF084CFCECDFC
:10023B00FCE5F0CBF97818EF2FFFEE33FEED33FD35
:10024B00EC33FCEB33FB10D703994004EB99FB0F1A
:10025B00D8E5E4F9FA227818EF2FFFEE33FEED33F1
:10026B00FDEC33FCC933C910D7059BE99A4007EC69
:10027B009BFCE99AF90FD8E0E4C9FAE4CCFB2275B0
:10028B00F010EF2FFFEE33FEED33FDCC33CCC83344
:10029B00C810D7079BEC9AE899400AED9BFDEC9AA6
:1002AB00FCE899F80FD5F0DAE4CDFBE4CCFAE4C81E
:1002BB00F922EB9FF5F0EA9E42F0E99D42F0E89CB3
:1002CB0045F022E8600FECC313FCED13FDEE13FEBB
:1002DB00EF13FFD8F122ECF0A3EDF0A3EEF0A3EFB8
:1002EB00F022A8828583F0D083D0821203041203FC
:1002FB0004120304120304E473E493A3C583C5F04F
:10030B00C583C8C582C8F0A3C583C5F0C583C8C55E
:10031B0082C8228A838982E473EC8EF0A4CCC5F068
:10032B00CCCDF8EFA4CEC5F02DFDE43CFCE8A42E1B
:10033B00C8C5F03DFDE43CFCEFA4FFE5F028FEE46E
:10034B003DFDE43CFC227B007AE179F57805120255
:10035B002BAC00AD01AE02AF037B807A9679987817
:10036B000012022BAC00AD01AE02AF037B407A4210
:10037B00790F780012022BAC00AD01AE02AF037BFC
:10038B00A07A867901780012022BAC00AD01AE0287
:10039B00AF03E47B107A27F9F812022BAC00AD0106
:1003AB00AE02AF03E47BE87A03F9F812022BAC0040
:1003BB00AD01AE02AF03E47B64FAF9F812022BAC89
:1003CB0000AD01AE02AF0322E47B0AFAF9F8120288
:1003DB002BEB2430FF020B5BE4FAF9F8900000E002
:1003EB00FCA3E0FDA3E0FEA3E0FF02022BC2A7C229
:1003FB00A6EF139280EFC313139281EF1313543FA5
:10040B00139282EF131313541F139283EFC4540FE1
:10041B00139284EFC4135407139285EFC413135430
:10042B0003139286EFC41313135401139287D2A6AE
:10043B0022D2A5C2A6C2A7C2C5C280C281C282C235
:10044B0083C284C285C286C2877F0F7E00227F64EF
:10045B007E00CFCDCFCECCCE227F38120B527F0574
:10046B007E0022900000E0FBA3E0FAA3E0F902007B
:10047B00D0AC07ECD394022244003C0000000044B3
:10048B000044000000004400400000000044004C09
:10049B000000000044004800000000440050000031
:1004AB00000042005A00004200600000420054006D
:1004BB000042005C00004200620000420056000057
:1004CB0042005E00004200640000420058000042FF
:1004DB0000700000420072000042007400004200F5
:1004EB00760000420078000042007A000042007C57
:1004FB00000042007E0000420080000042008200AB
:10050B0000C100C101C102C103C104420066000069
:10051B00420068000042006A000042006C0000428A
:10052B00006E0000C105C106C107C108C1090078F2
:10053B007FE4F6D8FD758121020581020AE2E4937E
:10054B00A3F8E493A34003F68001F208DFF48029BB
:10055B00E493A3F85407240CC8C333C4540F4420AA
:10056B00C8834004F456800146F6DFE4800B010299
:10057B00040810204080900483E47E019360BCA3A8
:10058B00FF543F30E509541FFEE493A360010ECFE7
:10059B0054C025E060A840B8E493A3FAE493A3F811
:1005AB00E493A3C8C582C8CAC583CAF0A3C8C582D1
:1005BB00C8CAC583CADFE9DEE780BEC2D5E830E72B
:1005CB000FB2D5E4C39BFBE49AFAE499F9E498F8EB
:1005DB00EC30E717B2D51205FC12022BE4C39BFBE0
:1005EB00E49AFAE499F9E498F8800312022B30D5D7
:1005FB000DE4C39FFFE49EFEE49DFDE49CFC22C042
:10060B00E0C0F0C083C082C0D075D000C000C00174
:10061B00C002C003C004C005C006C00790001E1274
:10062B000079D007D006D005D004D003D002D0017A
:10063B00D000D0D0D082D083D0F0D0E032C0E0C098
:10064B00F0C083C082C0D075D000C000C001C00212
:10065B00C003C004C005C006C00790002D1200796E
:10066B00D007D006D005D004D003D002D001D000E3
:10067B00D0D0D082D083D0F0D0E032C0E0C0F0C078
:10068B0083C082C0D075D000C000C001C002C003BF
:10069B00C004C005C006C007900021120079D00726
:1006AB00D006D005D004D003D002D001D000D0D0DA
:1006BB00D082D083D0F0D0E032C0E0C0F0C083C095
:1006CB0082C0D075D000C000C001C002C003C004FE
:1006DB00C005C006C007900030120079D007D006C5
:1006EB00D005D004D003D002D001D000D0D0D0821E
:1006FB00D083D0F0D0E032C0E0C0F0C083C082C065
:10070B00D075D000C000C001C002C003C004C0053A
:10071B00C006C00790000C120079D007D006D00598
:10072B00D004D003D002D001D000D0D0D082D0835F
:10073B00D0F0D0E032C0E0C0F0C083C082C0D07532
:10074B00D000C000C001C002C003C004C005C00679
:10075B00C007900000120079D007D006D005D00456
:10076B00D003D002D001D000D0D0D082D083D0F033
:10077B00D0E032C0E0C0F0C083C082C0D075D000E2
:10078B00C000C001C002C003C004C005C006C00742
:10079B00900006120079D007D006D005D004D00304
:1007AB00D002D001D000D0D0D082D083D0F0D0E016
:1007BB0032C0E0C0F0C083C082C0D075D000C00092
:1007CB00C001C002C003C004C005C006C007900032
:1007DB0003120079D007D006D005D004D003D00285
:1007EB00D001D000D0D0D082D083D0F0D0E032C0B6
:1007FB00E0C0F0C083C082C0D075D000C000C00183
:10080B00C002C003C004C005C006C00790000F1291
:10081B000079D007D006D005D004D003D002D00188
:10082B00D000D0D0D082D083D0F0D0E032C0E0C0A6
:10083B00F0C083C082C0D075D000C000C001C00220
:10084B00C003C004C005C006C007900009120079A0
:10085B00D007D006D005D004D003D002D001D000F1
:10086B00D0D0D082D083D0F0D0E032C0E0C0F0C086
:10087B0083C082C0D075D000C000C001C002C003CD
:10088B00C004C005C006C007900024120079D00731
:10089B00D006D005D004D003D002D001D000D0D0E8
:1008AB00D082D083D0F0D0E032C0E0C0F0C083C0A3
:1008BB0082C0D075D000C000C001C002C003C0040C
:1008CB00C005C006C007900027120079D007D006DC
:1008DB00D005D004D003D002D001D000D0D0D0822C
:1008EB00D083D0F0D0E032C0E0C0F0C083C082C073
:1008FB00D075D000C000C001C002C003C004C00549
:10090B00C006C007900033120079D007D006D0057F
:10091B00D004D003D002D001D000D0D0D082D0836D
:10092B00D0F0D0E032C0E0C0F0C083C082C0D07540
:10093B00D000C000C001C002C003C004C005C00687
:10094B00C00790001B120079D007D006D005D00449
:10095B00D003D002D001D000D0D0D082D083D0F041
:10096B00D0E032C0E0C0F0C083C082C0D075D000F0
:10097B00C000C001C002C003C004C005C006C00750
:10098B0090002A120079D007D006D005D004D003EE
:10099B00D002D001D000D0D0D082D083D0F0D0E024
:1009AB0032C0E0C0F0C083C082C0D075D000C000A0
:1009BB00C001C002C003C004C005C006C007900040
:1009CB0012120079D007D006D005D004D003D00284
:1009DB00D001D000D0D0D082D083D0F0D0E032C0C4
:1009EB00E0C0F0C083C082C0D075D000C000C00191
:1009FB00C002C003C004C005C006C0079000181297
:100A0B000079D007D006D005D004D003D002D00196
:100A1B00D000D0D0D082D083D0F0D0E032C0E0C0B4
:100A2B00F0C083C082C0D075D000C000C001C0022E
:100A3B00C003C004C005C006C00790003612007981
:100A4B00D007D006D005D004D003D002D001D000FF
:100A5B00D0D0D082D083D0F0D0E032C0E0C0F0C094
:100A6B0083C082C0D075D000C000C001C002C003DB
:100A7B00C004C005C006C007900039120079D0072A
:100A8B00D006D005D004D003D002D001D000D0D0F6
:100A9B00D082D083D0F0D0E032C0E0C0F0C083C0B1
:100AAB0082C0D075D000C000C001C002C003C0041A
:100ABB00C005C006C007900015120079D007D006FC
:100ACB00D005D004D003D002D001D000D0D0D0823A
:100ADB00D083D0F0D0E0327580FF7590FF75A0FF0A
:100AEB0075B0FF75C0FF75C8FF75E8FF75F8FF7F20
:100AFB00647E00120B36E4F580F590F5A0F5B0F5A9
:100B0B00C0F5C8F5E8F5F87F64FE020B36EF4E60D2
:100B1B0019EF1F70011E144E601000000000000042
:100B2B00000000000000000080E722AD07AC06EDDE
:100B3B004C6013ED1DAE0470011C4E60097FE87E06
:100B4B0003120B1880ED22C2C51203F800C2A622B5
:090B5B00D2C51203F800C2A62263
:00000001FF
