:07000000020AB1020C1A22F2
:03000B00020C588C
:03001300020C9646
:03001B00020CD400
:03002300020D12B9
:03002B00020D5073
:03003300020D8E2D
:03003B00020DCCE7
:03004300020E0AA0
:03004B00020E485A
:03005300020E8614
:03005B00020EC4CE
:03006300020F0287
:10006B00020F404A69616E675869204E6F2E31004E
:07007B00416E676C653A005D
:03008300020F7EEB
:03008B00020FBCA5
:03009300020FFA5F
:03009B0002103818
:0300A300021076D2
:1000AB000210B4C2D530F707B2D563F0FF05F030BC
:1000BB00E70CB2D5F4048463F0FF05F080018430C3
:1000CB00D502F40422BB010689828A83E022500206
:1000DB00E722BBFE02E32289828A83E49322BC00DF
:1000EB000BBE0029EF8DF084FFADF022E4CCF87548
:1000FB00F008EF2FFFEE33FEEC33FCEE9DEC984057
:10010B0005FCEE9DFE0FD5F0E9E4CEFD22EDF8F5F2
:10011B00F0EE8420D21CFEADF075F008EF2FFFED52
:10012B0033FD4007985006D5F0F222C398FD0FD54A
:10013B00F0EA22C2D5EC30E709B2D5E4C39DFDE469
:10014B009CFCEE30E715B2D5E4C39FFFE49EFE1294
:10015B0000E9C3E49DFDE49CFC80031200E930D56B
:10016B0007C3E49FFFE49EFE22C5F0F8A3E028F04E
:10017B00C5F0F8E582158270021583E038F022A3F2
:10018B00F8E0C5F025F0F0E582158270021583E0EA
:10019B00C838F0E822E88FF0A4CC8BF0A42CFCE953
:1001AB008EF0A42CFC8AF0EDA42CFCEA8EF0A4CDEE
:1001BB00A8F08BF0A42DCC3825F0FDE98FF0A42C02
:1001CB00CD35F0FCEB8EF0A4FEA9F0EB8FF0A4CFB5
:1001DB00C5F02ECD39FEE43CFCEAA42DCE35F0FD66
:1001EB00E43CFC2275F008758200EF2FFFEE33FE26
:1001FB00CD33CDCC33CCC58233C5829BED9AEC99F4
:10020B00E58298400CF582EE9BFEED9AFDEC99FC95
:10021B000FD5F0D6E4CEFBE4CDFAE4CCF9A88222DC
:10022B00B800C1B90059BA002DEC8BF084CFCECDFC
:10023B00FCE5F0CBF97818EF2FFFEE33FEED33FD35
:10024B00EC33FCEB33FB10D703994004EB99FB0F1A
:10025B00D8E5E4F9FA227818EF2FFFEE33FEED33F1
:10026B00FDEC33FCC933C910D7059BE99A4007EC69
:10027B009BFCE99AF90FD8E0E4C9FAE4CCFB2275B0
:10028B00F010EF2FFFEE33FEED33FDCC33CCC83344
:10029B00C810D7079BEC9AE899400AED9BFDEC9AA6
:1002AB00FCE899F80FD5F0DAE4CDFBE4CCFAE4C81E
:1002BB00F922EB9FF5F0EA9E42F0E99D42F0E89CB3
:1002CB0045F022E8600FECC313FCED13FDEE13FEBB
:1002DB00EF13FFD8F122ECF0A3EDF0A3EEF0A3EFB8
:1002EB00F022A8828583F0D083D0821203041203FC
:1002FB0004120304120304E473E493A3C583C5F04F
:10030B00C583C8C582C8F0A3C583C5F0C583C8C55E
:10031B0082C8228A838982E473EC8EF0A4CCC5F068
:10032B00CCCDF8EFA4CEC5F02DFDE43CFCE8A42E1B
:10033B00C8C5F03DFDE43CFCEFA4FFE5F028FEE46E
:10034B003DFDE43CFC22121127607714700302047C
:10035B002514700302047D1470030204D51470037A
:10036B0002052D24056003020586ED20E00E121117
:10037B001D8002C333D8FCF45294800B12111D80E4
:10038B0002C333D8FC4294EDC31320E00E12111DAF
:10039B008002C333D8FCF45293800B12111D8002E0
:1003AB00C333D8FC4293EB700D1211138002C3338D
:1003BB00D8FCF45280221211138002C333D8FC42B2
:1003CB008022ED20E00E12111D8002C333D8FCF405
:1003DB005292800B12111D8002C333D8FC4292ED56
:1003EB00C31320E00E12111D8002C333D8FCF4524C
:1003FB0091800B12111D8002C333D8FC4291EB701C
:10040B000D1211138002C333D8FCF4529022121137
:10041B00138002C333D8FC429022ED20E00E121160
:10042B001D8002C333D8FCF45296800B12111D8031
:10043B0002C333D8FC4296EDC31320E00E12111DFC
:10044B008002C333D8FCF45295800B12111D80022D
:10045B00C333D8FC4295EB700D1211138002C333DA
:10046B00D8FCF452A0221211138002C333D8FC42E1
:10047B00A022ED20E00E12111D8002C333D8FCF434
:10048B0052B2800B12111D8002C333D8FC42B2ED65
:10049B00C31320E00E12111D8002C333D8FCF4529B
:1004AB00B1800B12111D8002C333D8FC42B1EB702B
:1004BB000D1211138002C333D8FCF452B022121167
:1004CB00138002C333D8FC42B022ED20E00E121190
:1004DB001D8002C333D8FCF452B4800B12111D8063
:1004EB0002C333D8FC42B4EDC31320E00E12111D2E
:1004FB008002C333D8FCF452B3800B12111D80025F
:10050B00C333D8FC42B3EB700D1211138002C3330B
:10051B00D8FCF452C0221211138002C333D8FC4210
:10052B00C022ED20E00E12111D8002C333D8FCF463
:10053B0052CA800B12111D8002C333D8FC42CAAEC3
:10054B0005EEC31320E00E12111D8002C333D8FC3D
:10055B00F452C9800B12111D8002C333D8FC42C95F
:10056B00EB700D1211138002C333D8FCF452C82266
:10057B001211138002C333D8FC42C82290008EEDB7
:10058B00F090008DEFF0D3940240057402F0800CD4
:10059B0090008DE0C3940150037401F090008EE045
:1005AB00FFD3940C4005740CF0800CEFC3940250F5
:1005BB000690008E7402F090008DE064017043C3CE
:1005CB00EA64809480501EA3E0B401071211637F8C
:1005DB00808006120705247EFF120715C3E49BFBE0
:1005EB00E49AFA800D120705247E12070D7F201264
:1005FB0011971206741211637C277D10AF03AE02A4
:10060B00804590008DE06402705EC3EA6480948044
:10061B00501CA3E0B401071211637FC080041207C2
:10062B0021FF120715C3E49BFBE49AFA800B120718
:10063B002112070D7F20121197120674121163AE4F
:10064B0002AF037C277D1012013E7E037FE8120868
:10065B003712013E12083312013E7E007F0A120848
:10066B003712013EED1207B7221211637C277D1062
:10067B00AF03AE0212013EEF2430FF12119712119D
:10068B00637C037DE8AF03AE0212013E7C007D0A62
:10069B0012013EED2430FF1211971211637C007D85
:1006AB0064AF03AE0212013E7C007D6412013E7EFC
:1006BB00007F0ACFCDCFCECCCE12013EED2430FF42
:1006CB001211971211637C007D0AAF03AE02120167
:1006DB003E7C037DE812013E7E007F64CFCDCFCE02
:1006EB00CCCE12013E7E007F0ACFCDCFCECCCE1228
:1006FB00013EED2430FF1211972212116390008EF0
:10070B00E022FF12118E1211632212118E1211634D
:10071B007F2D1211972212116390008EE024BE22BE
:10072B007B007AE179F5780512022BAC00AD01AEB6
:10073B0002AF037B807A967998780012022BAC007B
:10074B00AD01AE02AF037B407A42790F7800120203
:10075B002BAC00AD01AE02AF037BA07A867901789A
:10076B000012022BAC00AD01AE02AF03E47B107A9A
:10077B0027F9F812022BAC00AD01AE02AF03E47BFC
:10078B00E87A03F9F812022BAC00AD01AE02AF030D
:10079B00E47B64FAF9F812022BAC00AD01AE02AFA8
:1007AB000322E47B0AFAF9F812022BEB2430FF0246
:1007BB001197E4FAF9F8900000E0FCA3E0FDA3E048
:1007CB00FEA3E0FF02022BC2A7C2A6EF139280EF9B
:1007DB00C313139281EF1313543F139282EF13132E
:1007EB0013541F139283EFC4540F139284EFC4134B
:1007FB005407139285EFC413135403139286EFC45B
:10080B001313135401139287D2A622D2A5C2A6C2E8
:10081B00A7C2C5C280C281C282C283C284C285C242
:10082B0086C2877F0F7E00227F647E00CFCDCFCE26
:10083B00CCCE227F3812118E7F057E002290008D48
:10084B00E0FBA3E0FAA3E0F90200D0AC07ECD394F1
:10085B00022290008DEBF0A3EAF0A3E9F0EFB414C1
:10086B0000400302095D900878F82828730208B449
:10087B000208BD0208C60208CF0208D70208DF0231
:10088B0008E70208EF0208F70208FF02090702094E
:10089B000F02091702091F02092702092F02093744
:1008AB0002093F02094702094F12117A90001E02FA
:1008BB00095512117A90002D02095512117A9000E8
:1008CB002102095512117A900030807E12117A9014
:1008DB00000C807612117A900000806E12117A90C3
:1008EB000006806612117A900003805E12117A90D6
:1008FB00000F805612117A900009804E12117A90D7
:10090B000024804612117A900027803E12117A90B3
:10091B000033803612117A90001B802E12117A90C0
:10092B00002A802612117A900012801E12117A90E2
:10093B000018801612117A900036800E12117A90E0
:10094B000039800612117A900015C9F0A3EAF0A3C2
:10095B00E9F022420091000044003C0000000044FA
:10096B000044000000004400400000000044004C24
:10097B00000000004400480000000044005000004C
:10098B00000042005A000042006000004200540088
:10099B000042005C00004200620000420056000072
:1009AB0042005E000042006400004200580000421A
:1009BB000070000042007200004200740000420010
:1009CB00760000420078000042007A000042007C72
:1009DB00000042007E0000420080000042008200C6
:1009EB0000C100C101C102C103C104420066000085
:1009FB00420068000042006A000042006C000042A6
:100A0B00006E0000C105C106C107C108C1090090F5
:100A1B00008DEBF0A3EAF0A3E9F0AC07A37410F0A0
:100A2B00ECD3940240047C028008ECC39401500286
:100A3B007C01EDD3941040047D108008EDC394012C
:100A4B0050027D01EC6401701E121163ED247FFFD7
:100A5B0012118E900090E0FF14F0EF602D120848F9
:100A6B006028120A9680ECEC6402701E121163ED82
:100A7B0024BFFF12118E900090E0FF14F0EF600A7C
:100A8B001208486005120A9680EC2212116390003E
:100A9B008DE0FBA3E475F00112018AA9F0FA1200B4
:100AAB00D0FF12119722787FE4F6D8FD75812102D1
:100ABB000AF8020B3DE493A3F8E493A34003F680FA
:100ACB0001F208DFF48029E493A3F85407240CC83F
:100ADB00C333C4540F4420C8834004F456800146EA
:100AEB00F6DFE4800B010204081020408090095EC1
:100AFB00E47E019360BCA3FF543F30E509541FFE15
:100B0B00E493A360010ECF54C025E060A840B8E485
:100B1B0093A3FAE493A3F8E493A3C8C582C8CAC508
:100B2B0083CAF0A3C8C582C8CAC583CADFE9DEE79A
:100B3B0080BE120BDBE4FB7D027F1E120351D288B9
:100B4B00D2A8438F107BFF7A1079F2E4FF12085D75
:100B5B007A0079067F0212085D7A1179A07F0A125A
:100B6B00085D7A00796E1D7F01120A1A7BFF7A00ED
:100B7B00797B7D017F02120A1AD2AF900091E0FAC5
:100B8B00A3E0FB7D087F0212058780EFC2D5E8301A
:100B9B00E70FB2D5E4C39BFBE49AFAE499F9E49826
:100BAB00F8EC30E717B2D5120BCD12022BE4C39B36
:100BBB00FBE49AFAE499F9E498F8800312022B30DB
:100BCB00D50DE4C39FFFE49EFEE49DFDE49CFC2257
:100BDB0012081612112F12083E12112F12083E1274
:100BEB00112F120C0A120C0A7F08120C137F011220
:100BFB000C137F0612118E1211637F0C02118E7F64
:100C0B003812118E1211632212118E12116322C02F
:100C1B00E0C0F0C083C082C0D075D000C000C0015E
:100C2B00C002C003C004C005C006C00790001E125E
:100C3B001185D007D006D005D004D003D002D00147
:100C4B00D000D0D0D082D083D0F0D0E032C0E0C082
:100C5B00F0C083C082C0D075D000C000C001C002FC
:100C6B00C003C004C005C006C00790002D1211853B
:100C7B00D007D006D005D004D003D002D001D000CD
:100C8B00D0D0D082D083D0F0D0E032C0E0C0F0C062
:100C9B0083C082C0D075D000C000C001C002C003A9
:100CAB00C004C005C006C007900021121185D007F3
:100CBB00D006D005D004D003D002D001D000D0D0C4
:100CCB00D082D083D0F0D0E032C0E0C0F0C083C07F
:100CDB0082C0D075D000C000C001C002C003C004E8
:100CEB00C005C006C007900030121185D007D00692
:100CFB00D005D004D003D002D001D000D0D0D08208
:100D0B00D083D0F0D0E032C0E0C0F0C083C082C04E
:100D1B00D075D000C000C001C002C003C004C00524
:100D2B00C006C00790000C121185D007D006D00565
:100D3B00D004D003D002D001D000D0D0D082D08349
:100D4B00D0F0D0E032C0E0C0F0C083C082C0D0751C
:100D5B00D000C000C001C002C003C004C005C00663
:100D6B00C007900000121185D007D006D005D00423
:100D7B00D003D002D001D000D0D0D082D083D0F01D
:100D8B00D0E032C0E0C0F0C083C082C0D075D000CC
:100D9B00C000C001C002C003C004C005C006C0072C
:100DAB00900006121185D007D006D005D004D003D1
:100DBB00D002D001D000D0D0D082D083D0F0D0E000
:100DCB0032C0E0C0F0C083C082C0D075D000C0007C
:100DDB00C001C002C003C004C005C006C00790001C
:100DEB0003121185D007D006D005D004D003D00252
:100DFB00D001D000D0D0D082D083D0F0D0E032C0A0
:100E0B00E0C0F0C083C082C0D075D000C000C0016C
:100E1B00C002C003C004C005C006C00790000F127B
:100E2B001185D007D006D005D004D003D002D00155
:100E3B00D000D0D0D082D083D0F0D0E032C0E0C090
:100E4B00F0C083C082C0D075D000C000C001C0020A
:100E5B00C003C004C005C006C0079000091211856D
:100E6B00D007D006D005D004D003D002D001D000DB
:100E7B00D0D0D082D083D0F0D0E032C0E0C0F0C070
:100E8B0083C082C0D075D000C000C001C002C003B7
:100E9B00C004C005C006C007900024121185D007FE
:100EAB00D006D005D004D003D002D001D000D0D0D2
:100EBB00D082D083D0F0D0E032C0E0C0F0C083C08D
:100ECB0082C0D075D000C000C001C002C003C004F6
:100EDB00C005C006C007900027121185D007D006A9
:100EEB00D005D004D003D002D001D000D0D0D08216
:100EFB00D083D0F0D0E032C0E0C0F0C083C082C05D
:100F0B00D075D000C000C001C002C003C004C00532
:100F1B00C006C007900033121185D007D006D0054C
:100F2B00D004D003D002D001D000D0D0D082D08357
:100F3B00D0F0D0E032C0E0C0F0C083C082C0D0752A
:100F4B00D000C000C001C002C003C004C005C00671
:100F5B00C00790001B121185D007D006D005D00416
:100F6B00D003D002D001D000D0D0D082D083D0F02B
:100F7B00D0E032C0E0C0F0C083C082C0D075D000DA
:100F8B00C000C001C002C003C004C005C006C0073A
:100F9B0090002A121185D007D006D005D004D003BB
:100FAB00D002D001D000D0D0D082D083D0F0D0E00E
:100FBB0032C0E0C0F0C083C082C0D075D000C0008A
:100FCB00C001C002C003C004C005C006C00790002A
:100FDB0012121185D007D006D005D004D003D00251
:100FEB00D001D000D0D0D082D083D0F0D0E032C0AE
:100FFB00E0C0F0C083C082C0D075D000C000C0017B
:10100B00C002C003C004C005C006C0079000181280
:10101B001185D007D006D005D004D003D002D00163
:10102B00D000D0D0D082D083D0F0D0E032C0E0C09E
:10103B00F0C083C082C0D075D000C000C001C00218
:10104B00C003C004C005C006C0079000361211854E
:10105B00D007D006D005D004D003D002D001D000E9
:10106B00D0D0D082D083D0F0D0E032C0E0C0F0C07E
:10107B0083C082C0D075D000C000C001C002C003C5
:10108B00C004C005C006C007900039121185D007F7
:10109B00D006D005D004D003D002D001D000D0D0E0
:1010AB00D082D083D0F0D0E032C0E0C0F0C083C09B
:1010BB0082C0D075D000C000C001C002C003C00404
:1010CB00C005C006C007900015121185D007D006C9
:1010DB00D005D004D003D002D001D000D0D0D08224
:1010EB00D083D0F0D0E03230B30F900092E004F018
:1010FB007015900091E004F022900092E024FFF034
:10110B00900091E034FFF022EF5407FF7401A80721
:10111B000822EF5407FE7401A8060822EF131313DD
:10112B00541F1422AD07AC06ED4C6013ED1DAE043D
:10113B0070011C4E60097FE87E0312114B80ED227B
:10114B00EF4E6013EF1F70011E144E600A0000007B
:10115B00000000000080ED22C2C5D2A7D2A600205D
:10116B0087FDC2A6C2C5C2A77FEE7E0202114B90BD
:10117B00008DE0F9A3E0FAA3E022A3E0FAA3E0F9E3
:10118B0002031EC2C51207D200C2A622D2C5120785
:0D119B00D200C2A622E4900091F0A3F02241
:00000001FF
