:06000000021C1802226937
:03000B000222A727
:030013000222E5E1
:03001B000223239A
:0300230002236154
:03002B0002239F0E
:030033000223DDC8
:03003B0002241B81
:030043000224593B
:03004B00022497F5
:030053000224D5AF
:03005B0002251368
:0300630002255122
:10006B0002258F900093E0F9A3E0FAA3E022A3E02E
:07007B00FAA3E0F902090EEF
:030083000225CD86
:03008B0002260B3F
:03009300022649F9
:03009B00022687B3
:0300A3000226C56D
:1000AB00022703900089EFF090008BEBF0AA0590EC
:1000BB0000931208DD000000009000971208DD008D
:1000CB0000000053A2CF120646EA700553D97F8079
:1000DB000BEA640160030203EA43D980900089E0D4
:1000EB00600302017153D8FE900092E0FF7005751A
:1000FB00DA428019EFB4010575DA638010EFB402B0
:10010B000575DA538007EFB4030375DA7390008C2F
:10011B00E0701253F23F12058412044670028036CF
:10012B00C374FF803A12067B7014E5F24440547F8F
:10013B00F5F21204347002801D1205C280211206E2
:10014B008260030203EAE5F2448054BFF5F275F0D6
:10015B0040120437700612061F02028F1205AA9F67
:10016B0012065A02028F900089E0640160030202BA
:10017B000253D8FD900092E0FF700575DB428019A9
:10018B00EFB4010575DB638010EFB4020575DB532B
:10019B008007EFB4030375DB7390008CE070125390
:1001AB00F33F1205841204467002803BC374FF8038
:1001BB003F12067B7014E5F34440547FF5F31204B1
:1001CB0034700280221205C280261206826003025E
:1001DB0003EAE5F3448054BFF5F3E5970454077540
:1001EB00F04012043C700612062C02028F1205AA74
:1001FB009F12066502028F900089E0640260030281
:10020B0003EA53D8FB900092E0FF700575DC428047
:10021B0019EFB4010575DC638010EFB4020575DCD2
:10022B00538007EFB4030375DC7390008CE07012FE
:10023B0053F43F1205841204467002803BC374FFD3
:10024B00803E12067B7014E5F44440547FF5F412A3
:10025B000434700280221205C280251206826003CC
:10026B000203EAE5F4448054BFF5F4E59704540720
:10027B0075F04012043C700512063980071205AA6E
:10028B009F12067090008BE0FFB4010BE5D944067A
:10029B0054F7F5D90203E8EF60030203EAFFFEFD12
:1002AB00FC90008D120413C31208AD70030203E817
:1002BB0090009312042890008D1204D740012290D5
:1002CB00009312042890008D120413C31208AD7012
:1002DB00061205FB0203E8E47B029000931204254F
:1002EB0012081B90008D120413C31208AD400612A6
:1002FB0006040203E87B041203EBC31208AD401D96
:10030B007B041205EA12042812049990008D120442
:10031B0013D31208AD500612060D0203E87B06122A
:10032B0003EBC31208AD401D7B061205EA1204282D
:10033B0012049990008D120413D31208AD500612BB
:10034B0006160203E8E47B081203ECC31208AD4067
:10035B001DE47B081205EB12042812049990008D02
:10036B00120413D31208AD5005120689806FE47B7B
:10037B000C1203ECC31208AD401DE47B0C1205EB11
:10038B0012042812049990008D120413D31208AD95
:10039B00500553D9F1804690008D120413900093B1
:1003AB0012042812081B9000971205DF9000971279
:1003BB000413D31208AD400A9000971208DD000019
:1003CB00FFFF9000971204139000971204E1900026
:1003DB00971206909000971204281205CAD2DE22BB
:1003EB00E4FAF9F8900093E0FCA3E0FDA3E0FEA390
:1003FB00E0FF12081B90008DEF24FCFFEE34FFFE94
:10040B00ED34FFFDEC34FFFCE0F8A3E0F9A3E0FAD8
:10041B00A3E0FB227B04E4900000FAF9F8E0FCA3D4
:10042B00E0FDA3E0FEA3E0FF2275F080E597045406
:10043B0007A4AEF0FBAA06E4F9F8FF7E367D6E7CCE
:10044B00011220619000931208D1900091E0FF22DD
:10045B0090005A74FFF5F0120764AFF0FEE4FCFD58
:10046B00FBFA7901F8020790900054E0FEA3E0FF3D
:10047B00E42FFFE43EFEE43401FDE433FC22C3EF42
:10048B009BFFEE9AFEED9400FDEC9400FC2212080B
:10049B001BEF2405FFE43EFEE43DFDE43CFC229013
:1004AB000060E0FEA3E0FFC3900055E09000549F76
:1004BB00FFE09EFEE4FCFD22EF2BFFEE3AFEED3952
:1004CB00FDEC38FC227F857C00900000E0F8A3A3B4
:1004DB00A3E0D30208ADC374FF9BFF74FF9AFEE445
:1004EB0099FDE498FC1208D1E5D9440454F5F5D9EB
:1004FB00438E805389F022C2D8900054E0FFA3E0D2
:10050B00900060CFF0A3EFF0900054E5FAF0A3E574
:10051B00EAF090005AE022C2D9900056E0FFA3E027
:10052B00900062CFF0A3EFF0900056E5FBF0A3E54F
:10053B00EBF090005CE022C2DA900058E0FFA3E001
:10054B00900064CFF0A3EFF0900058E5FCF0A3E52A
:10055B00ECF090005EE02212081BEF24FCFFEE345F
:10056B00FFFEED34FFFDEC34FFFC90000022900009
:10057B0060E0FEA3E0FBAA0622E5972401FFE4332B
:10058B00EF54077F007B00FAE4F9F822900064E057
:10059B00FEA3E0FFC3900059E09FFF90005822EFAD
:1005AB001313543FFFC3743F22900062E0FEA3E09D
:1005BB00FFC3900057E022EFC313FFC3747F227871
:1005CB00081208BE8F8CC28DD28C227F007E367DA6
:1005DB006E7C01221208D1E47FFF7EFFFDFC22E43A
:1005EB00FAF9F890009322E5F2C413135403FE2298
:1005FB00E5D9440854F9F5D922E5D9440254F3F569
:10060B00D922E5D9440A54FBF5D922E5D9440C5437
:10061B00FDF5D92275EAFF75FAFF43F20243F201A9
:10062B002275EBFF75FBFF43F30243F3012275ECDD
:10063B00FF75FCFF43F40243F4012253D87F53D8D8
:10064B00BFE4F5F9F5E922E5F4C41313540322F5DD
:10065B00EAF5FA53F2FE53F2FD22F5EBF5FB53F3F9
:10066B00FE53F3FD22F5ECF5FC53F4FE53F4FD229F
:10067B0090008CE064012290008CE0640222E5D9AA
:10068B00440EF5D922A3A3A3E0F58A22900000E043
:10069B00640222C2D530F707B2D563F0FF05F03004
:1006AB00E70CB2D5F4048463F0FF05F080018430CD
:1006BB00D502F40422BB010689828A83E022500210
:1006CB00E722BBFE02E32289828A83E49322BC00E9
:1006DB000BBE0029EF8DF084FFADF022E4CCF87552
:1006EB00F008EF2FFFEE33FEEC33FCEE9DEC984061
:1006FB0005FCEE9DFE0FD5F0E9E4CEFD22EDF8F5FD
:10070B00F0EE8420D21CFEADF075F008EF2FFFED5C
:10071B0033FD4007985006D5F0F222C398FD0FD554
:10072B00F0EA22C2D5EC30E709B2D5E4C39DFDE473
:10073B009CFCEE30E715B2D5E4C39FFFE49EFE129E
:10074B0006D9C3E49DFDE49CFC80031206D930D589
:10075B0007C3E49FFFE49EFE22C5F0F8A3E028F058
:10076B00C5F0F8E582158270021583E038F022A3FC
:10077B00F8E0C5F025F0F0E582158270021583E0F4
:10078B00C838F0E822E88FF0A4CC8BF0A42CFCE95D
:10079B008EF0A42CFC8AF0EDA42CFCEA8EF0A4CDF8
:1007AB00A8F08BF0A42DCC3825F0FDE98FF0A42C0C
:1007BB00CD35F0FCEB8EF0A4FEA9F0EB8FF0A4CFBF
:1007CB00C5F02ECD39FEE43CFCEAA42DCE35F0FD70
:1007DB00E43CFC2275F008758200EF2FFFEE33FE30
:1007EB00CD33CDCC33CCC58233C5829BED9AEC99FE
:1007FB00E58298400CF582EE9BFEED9AFDEC99FCA0
:10080B000FD5F0D6E4CEFBE4CDFAE4CCF9A88222E6
:10081B00B800C1B90059BA002DEC8BF084CFCECD06
:10082B00FCE5F0CBF97818EF2FFFEE33FEED33FD3F
:10083B00EC33FCEB33FB10D703994004EB99FB0F24
:10084B00D8E5E4F9FA227818EF2FFFEE33FEED33FB
:10085B00FDEC33FCC933C910D7059BE99A4007EC73
:10086B009BFCE99AF90FD8E0E4C9FAE4CCFB2275BA
:10087B00F010EF2FFFEE33FEED33FDCC33CCC8334E
:10088B00C810D7079BEC9AE899400AED9BFDEC9AB0
:10089B00FCE899F80FD5F0DAE4CDFBE4CCFAE4C828
:1008AB00F922EB9FF5F0EA9E42F0E99D42F0E89CBD
:1008BB0045F022E8600FECC313FCED13FDEE13FEC5
:1008CB00EF13FFD8F122ECF0A3EDF0A3EEF0A3EFC2
:1008DB00F022A8828583F0D083D0821208F412080C
:1008EB00F41208F41208F4E473E493A3C583C5F07F
:1008FB00C583C8C582C8F0A3C583C5F0C583C8C569
:10090B0082C8228A838982E473EC8EF0A4CCC5F072
:10091B00CCCDF8EFA4CEC5F02DFDE43CFCE8A42E25
:10092B00C8C5F03DFDE43CFCEFA4FFE5F028FEE478
:10093B003DFDE43CFC22900089EFF0A3EDF0E49048
:10094B000091F0A3F0E5972401FFE4337E00EF5410
:10095B0007FFE4FCFDFBFA7901F812160A1220617D
:10096B0090008BE0F8A3E0F9A3E0FAA3E0FBD3122D
:10097B0008AD5003020ACA900089E0703812163A8B
:10098B00400312166B90008AE09000841215EB1254
:10099B00081B90007A12164890007A12161E9000CF
:1009AB0070EEF0EF1215E0E4FF121F3B7BFF7A1F96
:1009BB0079A0020AE9900089E06401703912163AB5
:1009CB00400312166B90008AE09000851215EB1213
:1009DB00081B90007C12164890007C12161E90008B
:1009EB0072EEF0A3EF1215E17F01121F3B7BFF7A32
:1009FB001E7968020B16900089E06402703A121699
:100A0B003A400312166B90008AE09000861215EBA9
:100A1B0012081B90007E121648FF90007E12161FC4
:100A2B00900074EEF0A3EF1215E17F02121F3B7BD7
:100A3B00FF7A1D7924020B43900089E06403703A1E
:100A4B0012163A400312166B90008AE09000871240
:100A5B0015EB12081B900080121648FF90008012B5
:100A6B00161F900076EEF0A3EF1215E17F03121F15
:100A7B003B7BFF7A1D7990020B6F900089E0640439
:100A8B006003020BA712163A400312166B90008AF2
:100A9B00E09000881215EB12081B9000821216488A
:100AAB00FF90008212161F900078EEF0A3EF121544
:100ABB00E17F04121F3B7BFF7A1D79FC020B9B909D
:100ACB000089E07025A3E0900084121662900070FC
:100ADB00121598E4FF121F3B7BFF7A2179EC7F0103
:100AEB00121497D20A7F01020BA4900089E06401D3
:100AFB007025A3E090008512166290007212159873
:100B0B007F01121F3B7BFF7A2079A57F031214977D
:100B1B00D20A7F03020BA4900089E064027024A325
:100B2B00E09000861216629000741215987F0212E4
:100B3B001F3B7BFF7A2079E77F0C121497D20A7F39
:100B4B000C8056900089E064037024A3E09000872A
:100B5B001216629000761215987F03121F3B7BFFD3
:100B6B007A2179297F11121497D20A7F11802A904A
:100B7B000089E064047025A3E0900088121662904F
:100B8B0000781215987F04121F3B7BFF7A21796B3B
:100B9B007F12121497D20A7F12121B7C221227CBC0
:100BAB006077147003020C7C147003020CD4147065
:100BBB0003020D2C147003020D8424056003020D37
:100BCB00DDED20E00E1227C18002C333D8FCF452B6
:100BDB0094800B1227C18002C333D8FC4294EDC31F
:100BEB001320E00E1227C18002C333D8FCF45293BA
:100BFB00800B1227C18002C333D8FC4293EB700DDC
:100C0B001227B78002C333D8FCF45280221227B7C5
:100C1B008002C333D8FC428022ED20E00E1227C1A4
:100C2B008002C333D8FCF45292800B1227C180028E
:100C3B00C333D8FC4292EDC31320E00E1227C180C0
:100C4B0002C333D8FCF45291800B1227C18002C32C
:100C5B0033D8FC4291EB700D1227B78002C333D807
:100C6B00FCF45290221227B78002C333D8FC429077
:100C7B0022ED20E00E1227C18002C333D8FCF452C0
:100C8B0096800B1227C18002C333D8FC4296EDC36A
:100C9B001320E00E1227C18002C333D8FCF4529507
:100CAB00800B1227C18002C333D8FC4295EB700D29
:100CBB001227B78002C333D8FCF452A0221227B7F5
:100CCB008002C333D8FC42A022ED20E00E1227C1D4
:100CDB008002C333D8FCF452B2800B1227C18002BE
:100CEB00C333D8FC42B2EDC31320E00E1227C180F0
:100CFB0002C333D8FCF452B1800B1227C18002C35C
:100D0B0033D8FC42B1EB700D1227B78002C333D836
:100D1B00FCF452B0221227B78002C333D8FC42B086
:100D2B0022ED20E00E1227C18002C333D8FCF4520F
:100D3B00B4800B1227C18002C333D8FC42B4EDC37D
:100D4B001320E00E1227C18002C333D8FCF452B338
:100D5B00800B1227C18002C333D8FC42B3EB700D5A
:100D6B001227B78002C333D8FCF452C0221227B724
:100D7B008002C333D8FC42C022ED20E00E1227C103
:100D8B008002C333D8FCF452CA800B1227C18002F5
:100D9B00C333D8FC42CAAE05EEC31320E00E1227B4
:100DAB00C18002C333D8FCF452C9800B1227C18017
:100DBB0002C333D8FC42C9EB700D1227B78002C3B4
:100DCB0033D8FCF452C8221227B78002C333D8FCA5
:100DDB0042C8227B007AE179F5780512081BAC003A
:100DEB00AD01AE02AF037B807A967998780012083A
:100DFB001BAC00AD01AE02AF037B407A42790F789A
:100E0B000012081BAC00AD01AE02AF037BA07A86CB
:100E1B007901780012081BAC00AD01AE02AF03E400
:100E2B007B107A27F9F812081BAC00AD01AE02AFAC
:100E3B0003E47BE87A03F9F812081BAC00AD01AEB2
:100E4B0002AF03E47B64FAF9F812081BAC00AD01A6
:100E5B00AE02AF0322E4FAF9F8900000E0FCA3E045
:100E6B00FDA3E0FEA3E0FF02081B1206D97E007F64
:100E7B0064CFCDCFCECCCE1206D97E007F0ACFCD9C
:100E8B00CFCECCCE1206D9ED2430FF02282BC2C216
:100E9B00C2C4EF1392A0EFC3131392A1EF13135419
:100EAB003F1392A2EF131313541F1392A3EFC454C7
:100EBB000F1392A4EFC41354071392A5EFC413138B
:100ECB0054031392A6EFC413131354011392A7D216
:100EDB00C42212072E7E007F64CFCDCFCECCCE1294
:100EEB00072E7E007F0ACFCDCFCECCCE02072ED2DF
:100EFB00C5C2C4C2C2C2C1C2A0C2A1C2A2C2A3C245
:100F0B00A4C2A5C2A6C2A77F0F7E00227F381228DB
:100F1B004F7F057E002290008BE0FEA3E0FF7C005C
:100F2B000206D990008BE0FEA3E0FFC3E49FFFE431
:100F3B009E90008BF0A3EFF022900000E0FF0206E2
:100F4B009E90008BE0FBA3E0FAA3E0F90206C075CC
:100F5B00F00A12069EAFF0EF227E037FE8CFCDCFD3
:100F6B00CECCCE22900000E0C36480948022C3904C
:100F7B00008BE06480948022900089EFF0E41227CC
:100F8B007412277412278F6015EFC39404500F123D
:100F9B0010D1500574FFF080EBE004F080E6900078
:100FAB008AE0B4040280671210907D4E1210E81292
:100FBB0010C61210C67D7F12200412278F6015EF0A
:100FCB00C39404500F1210D1500574FFF080EBE066
:100FDB0004F080E690008AE0B40402803112109095
:100FEB007D4412200412278F601DEFC39404501709
:100FFB00900089E0FF121ED290008A500574FFF01A
:10100B0080E3E004F080DE90008AE0B404057EFF0C
:10101B007FFF22E490008AF0900089E0FF7DCC12E4
:10102B0010E87DBE122004900089E0FF12197F901A
:10103B00008B1210A590008C1210A590008D121031
:10104B00B090008E1210B090008F1210BB900090D9
:10105B001210BB9000911210DD9000921210DD90D7
:10106B000093EFF090008CE0FE90008BE0FDEDFF25
:10107B00E4FCFD7B32FAF9F8120790E47B08FAF9ED
:10108B00F812206122E490008AF0900089E0FF7D45
:10109B00CC122004900089E0FF22EFF0900089E051
:1010AB00FF12197F22EFF0900089E0FF12197F22C7
:1010BB00EFF0900089E0FF12197F22E4FD1220046B
:1010CB00900089E0FF22900089E0FF121ED2900071
:1010DB008A22EFF0900089E0FF12197F2212200480
:1010EB00900089E0FF2290008AEDF0A3EAF0A3EBD9
:1010FB00F0900089EFF0D3940240057402F0800C5D
:10110B00900089E0C3940150037401F090008AE0D1
:10111B00FFD3940C4005740CF0800CEFC394025079
:10112B000690008A7402F0900089E064017030121E
:10113B000F79501C90008AE0B401071228077F80BA
:10114B00800612121D247EFF12122D120F2E8044C8
:10115B0012121D247E1212257F2012282B8035900F
:10116B000089E064026003021204120F79501A9096
:10117B00008AE0B401071228077FC08004121239DD
:10118B00FF12122D120F2E800B1212391212257F05
:10119B002012282B1212057C277D1012072EEF121E
:1011AB000E931212057C037DE812072E7C007D0A3C
:1011BB0012072E120E921212117C007D6412072E52
:1011CB007C007D64120EEA120E921212117C007DCD
:1011DB000A12072E7C037DE8120EDD120E921228E6
:1011EB000790008BE0FEA3E0FF7C277D1012072EFB
:1011FB00120F64120EDD120E922212280790008B32
:10120B00E0FEA3E0FF2212280790008BE0FEA3E094
:10121B00FF2212280790008AE022FF12284F122883
:10122B00072212284F1228077F2D12282B22122853
:10123B000790008AE024BE227F0412136C7F0512F4
:10124B00136CE4FB7D017F06120BA8D284E49000A3
:10125B008CF0A31208DD00001E85E4900091F0A332
:10126B00F0FBFDFF1213621208DD00001E857426D1
:10127B001222557F011213621208DD00001E8574C5
:10128B00FF1222557F021200AE90008B1208DD0078
:10129B00001E8590008FE4F0A3740FF07D05E4FF32
:1012AB0012094190008B1208DD00001E8590008F03
:1012BB00E4F0A37432F07D067F011209411221ADD7
:1012CB00E4FF121ED27F01121ED274FFFDFC7F02BF
:1012DB00121F3B7BFF7A1A792B7F0C121497D20AC1
:1012EB007F0C121B7CD2887BFF7A1A79D4E4FF1215
:1012FB001497D2A8D2AFD2CCD297D295D2949000D9
:10130B00A0E0FEA3E0FFD312222B4004E4FD8002F9
:10131B007DFF7F0212137490009BE0FEA3E0FFC3DE
:10132B0074889FFF74139E7D0C122249E4FF1213E5
:10133B0074D390009CE094C490009BE064809489EB
:10134B00500D9000A0E0FEA3E0FF12222B4004C240
:10135B008480ABD28480A71200AEE490008CF0A303
:10136B0022E4FB7D01120BA822EF705EE5F2C413A1
:10137B001354037E0070027E01EE5403600BED707C
:10138B0002803AC374FF9D803D1205F2BE01047EBC
:10139B000180027E00EE5403600CED7002801EEDA6
:1013AB001205C39F80201205F2BE02047E0180024B
:1013BB007E00EE54037003021496ED700412061FA8
:1013CB0022ED1205AB9F12065A22EF6401705FE506
:1013DB00F3C4131354037E0070027E01EE540360BA
:1013EB000BED7002803BC374FF9D803EE5F312054D
:1013FB00F4BE01047E0180027E00EE5403600CED0E
:10140B007002801DED1205C39F801FE5F31205F4DA
:10141B00BE02047E0180027E00EE5403606DED700F
:10142B000412062C22ED1205AB9F12066522EF6407
:10143B000270581206527F0070027F01EF54036056
:10144B000BED70028039C374FF9D803C120652FF76
:10145B00BF01047F0180027F00EF5403600CED702D
:10146B0002801CED1205C39F801E120652FFBF02A5
:10147B00047F0180027F00EF5403600FED700412B4
:10148B00063922ED1205AB9F12067022900093EBEA
:10149B00F0A3EAF0A3E9F0EFB414004003021597B0
:1014AB009014B2F82828730214EE0214F7021500F8
:1014BB00021509021511021519021521021529022F
:1014CB001531021539021541021549021551021544
:1014DB005902156102156902157102157902158100
:1014EB0002158912006E90001E02158F12006E906D
:1014FB00002D02158F12006E90002102158F120025
:10150B006E900030807E12006E90000C8076120080
:10151B006E900000806E12006E90000680661200C6
:10152B006E900003805E12006E90000F80561200CA
:10153B006E900009804E12006E90002480461200BF
:10154B006E900027803E12006E90003380361200A2
:10155B006E90001B802E12006E90002A80261200C7
:10156B006E900012801E12006E90001880161200F2
:10157B006E900036800E12006E90003980061200BD
:10158B006E900015C9F0A3EAF0A3E9F022CFF0A307
:10159B00EFF0E5972401FFE4337E00EF5407FFE4FF
:1015AB00FCFD90008BE0F8A3E0F9A3E0FAA3E0FBCD
:1015BB00120790E47B64FAF9F8120790A804A905C6
:1015CB00AA06AB077F007E367D6E7C0112081B904E
:1015DB000091EEF0EFA3F0900091E0FCA3E0FD2270
:1015EB00F0E5972401FFE4337E00EF5407FFE4FCA2
:1015FB00FD90008BE0F8A3E0F9A3E0FAA3E0FB1267
:10160B000790A804A905AA06AB077F007E367D6E5E
:10161B007C0122FFE0FCA3E0FD120914E47B64FAD9
:10162B00F9F802081B900070E0FEA3E0FFC322D381
:10163B00900090E0946490008FE0940022EEF0A371
:10164B00EFF090008FE0FEA3E0229FFFE09EFED321
:10165B00749A9F74019E22F090008FE0FFA3E0220A
:10166B00E4F0A37464F0224200A0138842009D00B2
:10167B000042009B000041009F0044003C00000022
:10168B0000440044000000004400400000000044FF
:10169B00004C0000000044004800000000440050D3
:1016AB000000000042005A000042006000004200AF
:1016BB0054000042005C00004200620000420056F1
:1016CB00000042005E00004200640000420058002F
:1016DB0000420070000042007200004200740000E3
:1016EB004200760000420078000042007A0000427F
:1016FB00007C000042007E0000420080000042009F
:10170B00820000C100C101C102C103C104420066D5
:10171B000000420068000042006A000042006C00BA
:10172B000042006E0000C105C106C107C108C10916
:10173B000090008AEDF0A3EAF0A3EBF0900089EFA4
:10174B00F0D3940240057402F0800C900089E0C342
:10175B00940150037401F090008AE0FFD3940C4085
:10176B0005740CF0800CEFC39401500690008A7442
:10177B0001F0900089E06401700B12280790008A39
:10178B00E0247F8011900089E064027054122807D6
:10179B0090008AE024BFFF12284F1217EDEF120EB4
:1017AB009312280790008BE0FEA3E0FF7C037DE8FB
:1017BB001206D97C007D0A120E8F1228077D641247
:1017CB000F217C007D64120E821228077D0A120FF6
:1017DB00217C037DE8120E751217ED120F64120EA9
:1017EB00752212280790008BE0FEA3E0FF7C277D7B
:1017FB00101206D9221227CB603214604B1460648E
:10180B0014607D1470030218A7240560030218C22C
:10181B00300A0C1227B78002C333D8FC4280221245
:10182B0027B78002C333D8FCF4528022300A0C1243
:10183B0027B78002C333D8FC4290221227B780020D
:10184B00C333D8FCF4529022300A0C1227B7800213
:10185B00C333D8FC42A0221227B78002C333D8FC73
:10186B00F452A022300A0C1227B78002C333D8FCE3
:10187B0042B0221227B78002C333D8FCF452B022F5
:10188B00300A0C1227B78002C333D8FC42C0221295
:10189B0027B78002C333D8FCF452C022300A0C1293
:1018AB0027B78002C333D8FC42C8221227B7800265
:1018BB00C333D8FCF452C82290008AEDF0A3EBF0AE
:1018CB00A3EAF0A3E9F0900089EFF090008E74107A
:1018DB00F0EFD3940240089000897402F0800C90D2
:1018EB000089E0C3940150037401F090008AE0FF7B
:1018FB00D3941040057410F0800CEFC39401500684
:10190B0090008A7401F0900089E064017021122824
:10191B000790008AE0247FFF12284F90008EE0FF93
:10192B0014F0EF6033120F4C602E12196480EC90A0
:10193B000089E06402702112280790008AE024BF1E
:10194B00FF12284F90008EE0FF14F0EF600A120F89
:10195B004C600512196480EC2212280790008BE072
:10196B00FBA3E475F00112077AA9F0FA1206C0FF87
:10197B0012282B22900094EFF0E4A3F0900097F044
:10198B00A3F0A3F0900095F0900094E0FFC20A1230
:10199B0018007F01121A20D20A1218007F0A121A9D
:1019AB0020121CA4900097121A15900098121A1569
:1019BB00900099EFF0900098E0FD900097E02DFDDE
:1019CB00E433FC7E00ED2FFFEE3CFED3EF9401EEF3
:1019DB0064809480400C12277F8002C333D8FC4F65
:1019EB00800B12277F8002C333D8FCF45F900096E4
:1019FB00F07F327E001227EF900095E004F0E0C3F9
:101A0B0094084084900096E0FF22EFF0900094E061
:101A1B00FF121CA4227E001227EF900094E0FF22FD
:101A2B0090009FE004F0E0D394FE5003021ACBE445
:101A3B00F07A2779967F01121ACCE4FF120F83906C
:101A4B00009D12225F7F011210F17A27799A7F0293
:101A5B00121ACC7F01120F8390009B12225F7F0220
:101A6B001210F17BFF7A27799E7D0B7F011218C331
:101A7B0012223C1210F190009EE02488FF90009DF2
:101A8B00E034137D271222497F0112137490008BCF
:101A9B001208DD00001E8590009EE02478FF900068
:101AAB009DE034ECFE7C007D8F12072EEF2455FF5A
:101ABB00E43E90008FF0A3EFF07D05E4FF120941A7
:101ACB00227BFF7D011218C322C2A87F0A7E00125F
:101ADB0027D37DFF7F02121374E4FDFF121374C230
:101AEB000A7F01121B7CC20A7F03121B7C30B2FDE2
:101AFB00C20A7F0C121B7C7F011228347BFF7A27D2
:101B0B0079A27D017F011218C3E4FF120F837FBC02
:101B1B007E021227D3E4FF120F83AA06AB077D0BBD
:101B2B007F0112173C7BFF7A2779AD7D017F021273
:101B3B0018C330CC2A12223C1210F120950E9000C3
:101B4B00A1E004F070069000A0E004F02097E39071
:101B5B0000A1E024FFF09000A0E034FFF080D33030
:101B6B00CCFDD2A87F01122834D20A7F0C121B7C29
:101B7B0022EFB413004003021C17901B8CF828288B
:101B8B0073021BC5021BD0021BDB021BE6021C17D8
:101B9B00021C17021C17021C17021C17021C17022F
:101BAB001C17021C17021BF1021C17021C17021C2C
:101BBB0017021C17021BFE021C0B300A05D2A8D2FF
:101BCB00AF22C2A822300A05D2A9D2AF22C2A922C3
:101BDB00300A05D2AAD2AF22C2AA22300A05D2AB52
:101BEB00D2AF22C2AB22300A0643AF04D2AF22538C
:101BFB00AFFB22300A0643AF20D2AF2253AFDF2216
:101C0B00300A0643AF40D2AF2253AFBF22787FE4F6
:101C1B00F6D8FD758121021C5F021243E493A3F8F1
:101C2B00E493A34003F68001F208DFF48029E493E8
:101C3B00A3F85407240CC8C333C4540F4420C883DF
:101C4B004004F456800146F6DFE4800B01020408E1
:101C5B0010204080901672E47E019360BCA3FF5469
:101C6B003F30E509541FFEE493A360010ECF54C02F
:101C7B0025E060A840B8E493A3FAE493A3F8E493B7
:101C8B00A3C8C582C8CAC583CAF0A3C8C582C8CABF
:101C9B00C583CADFE9DEE780BE1227CB6021146063
:101CAB002F14603D14604B14605924057068EF5479
:101CBB0007FFE580A807088002C313D8FC8053EF09
:101CCB005407FFE590A807088002C313D8FC804295
:101CDB00EF5407FFE5A0A807088002C313D8FC80C8
:101CEB0031EF5407FFE5B0A807088002C313D8FCF7
:101CFB008020EF5407FFE5C0A807088002C313D864
:101D0B00FC800FEF5407FFE5C8A807088002C31338
:101D1B00D8FC5401FF227F0022B202C3900075E071
:101D2B00949A900074E094015009900086E0FFC2F1
:101D3B000A801B90007412163390007FE09FFF9077
:101D4B00007E121657400A900086E0FFD20A021856
:101D5B0000900086E0FF30020FC20A1218009000BC
:101D6B0074E0FCA3E0FD8017D20A121800900074F7
:101D7B0012163390007FE09FFD90007EE09EFC7F6B
:101D8B000212274122B203C3900077E0949A90008D
:101D9B0076E094015009900087E0FFC20A801B9007
:101DAB000076121633900081E09FFF900080121690
:101DBB0057400A900087E0FFD20A02180090008774
:101DCB00E0FF30030FC20A121800900076E0FCA36C
:101DDB00E0FD8017D20A121800900076121633908D
:101DEB000081E09FFD900080E09EFC7F0312274165
:101DFB0022B204C3900079E0949A900078E09401A9
:101E0B005009900088E0FFC20A801B9000781216E0
:101E1B0033900083E09FFF900082121657400A9088
:101E2B000088E0FFD20A021800900088E0FF30041F
:101E3B000FC20A121800900078E0FCA3E0FD801797
:101E4B00D20A121800900078121633900083E09F8C
:101E5B00FD900082E09EFC7F0412274122B201C359
:101E6B00900073E0949A900072E0940150099000F6
:101E7B0085E0FFC20A801990007212163390007D24
:101E8B00E090007C121655400A900085E0FFD20AC4
:101E9B00021800900085E0FF30010FC20A121800F3
:101EAB00900072E0FCA3E0FD8017D20A121800909C
:101EBB00007212163390007DE09FFD90007CE09E37
:101ECB00FC7F0112274122900094EFF0E4A3F07BFA
:101EDB00017D01120BA8900094E0FFC20A121800BA
:101EEB007FF47E011227EF900094E0FFD20A1218C4
:101EFB00007F3C7E001227EF900094E0FF121CA4A1
:101F0B00EF600E900095E0C394645005E004F08000
:101F1B00E7900095E0B46404E4F0800690009574BB
:101F2B0001F07FF07E001227EF900095E024FF2256
:101F3B001228447010C28D438E805389F08D8AEC29
:101F4B00F58CD28C22EF64017010C28F438E4053FC
:101F5B00890F8D8BECF58DD28E22EF6402700F43BF
:101F6B008E048DD7ECF5D6538EF7438E1022EF648B
:101F7B0003700F43D1028DD5ECF5D453D1FB43D174
:101F8B000822EFB4040E43D1208DD3ECF5D253D1FC
:101F9B00BF43D18022B200C3900071E0949A9000AD
:101FAB0070E094015009900084E0FFC20A80161281
:101FBB00163090007BE090007A121655400A900084
:101FCB0084E0FFD20A021800900084E0FF30000F7B
:101FDB00C20A121800900070E0FCA3E0FD8014D23E
:101FEB000A12180012163090007BE09FFD90007AC9
:101FFB00E09EFCE4FF12274122900094EFF0A3ED4A
:10200B00F0E4A3F0F0900094E0FFC20A1218007FF6
:10201B000A122056900096E0FE900095E0FDA8066F
:10202B00088002C313D8FC13920A1218007F3212D5
:10203B002056D20A1218007F027E001227EF900062
:10204B0096E004F0E0C3940840BB227E001227EF19
:10205B00900094E0FF22C2D5E830E70FB2D5E4C37D
:10206B009BFBE49AFAE499F9E498F8EC30E717B2A1
:10207B00D512209712081BE4C39BFBE49AFAE49950
:10208B00F9E498F8800312081B30D50DE4C39FFFC9
:10209B00E49EFEE49DFDE49CFC22900069E004F0CC
:1020AB007006900068E004F0D3900069E0946490AF
:1020BB000068E094004004E4F0A3F0900072121664
:1020CB0033900069E09F900068E09E900085E0FFF0
:1020DB004004C20A8002D20A1218002290006BE060
:1020EB0004F0700690006AE004F0D390006BE0946B
:1020FB006490006AE094004004E4F0A3F090007454
:10210B0012163390006BE09F90006AE09E90008661
:10211B00E0FF4004C20A8002D20A1218002290008B
:10212B006DE004F0700690006CE004F0D390006D4D
:10213B00E0946490006CE094004004E4F0A3F09011
:10214B00007612163390006DE09F90006CE09E902D
:10215B000087E0FF4004C20A8002D20A1218002254
:10216B0090006FE004F0700690006EE004F0D390E6
:10217B00006FE0946490006EE094004004E4F0A3E0
:10218B00F090007812163390006FE09F90006EE095
:10219B009E900088E0FF4004C20A8002D20A121807
:1021AB000022120EFA1227D3120F171227D3120F77
:1021BB00171227D31221DC1221DC7F081221E57FB5
:1021CB00011221E57F0612284F1228077F0C0228E7
:1021DB004F7F3812284F1228072212284F12280738
:1021EB0022900067E004F07006900066E004F0D3E4
:1021FB00900067E09464900066E094004004E4F083
:10220B00A3F0121630900067E09F900066E09E905E
:10221B000084E0FF4004C20A8002D20A1218002296
:10222B0090009EE09FEE6480F890009DE0648098A3
:10223B00229000A0E0FAA3E0FB7D0B7F0222FE7C44
:10224B000012072EC374FF9FFD22900091F0E4A3B0
:10225B00F0FBFD22EEF0FAA3EFF0FB7D0522C0E0D0
:10226B00C0F0C083C082C0D075D000C000C001C018
:10227B0002C003C004C005C006C00790001E1200B8
:10228B0079D007D006D005D004D003D002D001D02E
:10229B0000D0D0D082D083D0F0D0E032C0E0C0F0FC
:1022AB00C083C082C0D075D000C000C001C002C0C6
:1022BB0003C004C005C006C00790002D120079D0E2
:1022CB0007D006D005D004D003D002D001D000D067
:1022DB00D0D082D083D0F0D0E032C0E0C0F0C08349
:1022EB00C082C0D075D000C000C001C002C003C006
:1022FB0004C005C006C007900021120079D007D09A
:10230B0006D005D004D003D002D001D000D0D0D05D
:10231B0082D083D0F0D0E032C0E0C0F0C083C08266
:10232B00C0D075D000C000C001C002C003C004C043
:10233B0005C006C007900030120079D007D006D038
:10234B0005D004D003D002D001D000D0D0D082D0A1
:10235B0083D0F0D0E032C0E0C0F0C083C082C0D0E8
:10236B0075D000C000C001C002C003C004C005C0CE
:10237B0006C00790000C120079D007D006D005D00C
:10238B0004D003D002D001D000D0D0D082D083D0E3
:10239B00F0D0E032C0E0C0F0C083C082C0D075D0B6
:1023AB0000C000C001C002C003C004C005C006C00D
:1023BB0007900000120079D007D006D005D004D0CA
:1023CB0003D002D001D000D0D0D082D083D0F0D0B7
:1023DB00E032C0E0C0F0C083C082C0D075D000C076
:1023EB0000C001C002C003C004C005C006C00790F6
:1023FB000006120079D007D006D005D004D003D048
:10240B0002D001D000D0D0D082D083D0F0D0E03237
:10241B00C0E0C0F0C083C082C0D075D000C000C087
:10242B0001C002C003C004C005C006C00790000372
:10243B00120079D007D006D005D004D003D002D03B
:10244B0001D000D0D0D082D083D0F0D0E032C0E029
:10245B00C0F0C083C082C0D075D000C000C001C026
:10246B0002C003C004C005C006C00790000F1200D5
:10247B0079D007D006D005D004D003D002D001D03C
:10248B0000D0D0D082D083D0F0D0E032C0E0C0F00A
:10249B00C083C082C0D075D000C000C001C002C0D4
:1024AB0003C004C005C006C007900009120079D014
:1024BB0007D006D005D004D003D002D001D000D075
:1024CB00D0D082D083D0F0D0E032C0E0C0F0C08357
:1024DB00C082C0D075D000C000C001C002C003C014
:1024EB0004C005C006C007900024120079D007D0A5
:1024FB0006D005D004D003D002D001D000D0D0D06C
:10250B0082D083D0F0D0E032C0E0C0F0C083C08274
:10251B00C0D075D000C000C001C002C003C004C051
:10252B0005C006C007900027120079D007D006D04F
:10253B0005D004D003D002D001D000D0D0D082D0AF
:10254B0083D0F0D0E032C0E0C0F0C083C082C0D0F6
:10255B0075D000C000C001C002C003C004C005C0DC
:10256B0006C007900033120079D007D006D005D0F3
:10257B0004D003D002D001D000D0D0D082D083D0F1
:10258B00F0D0E032C0E0C0F0C083C082C0D075D0C4
:10259B0000C000C001C002C003C004C005C006C01B
:1025AB000790001B120079D007D006D005D004D0BD
:1025BB0003D002D001D000D0D0D082D083D0F0D0C5
:1025CB00E032C0E0C0F0C083C082C0D075D000C084
:1025DB0000C001C002C003C004C005C006C0079004
:1025EB00002A120079D007D006D005D004D003D032
:1025FB0002D001D000D0D0D082D083D0F0D0E03246
:10260B00C0E0C0F0C083C082C0D075D000C000C095
:10261B0001C002C003C004C005C006C00790001271
:10262B00120079D007D006D005D004D003D002D049
:10263B0001D000D0D0D082D083D0F0D0E032C0E037
:10264B00C0F0C083C082C0D075D000C000C001C034
:10265B0002C003C004C005C006C0079000181200DA
:10266B0079D007D006D005D004D003D002D001D04A
:10267B0000D0D0D082D083D0F0D0E032C0E0C0F018
:10268B00C083C082C0D075D000C000C001C002C0E2
:10269B0003C004C005C006C007900036120079D0F5
:1026AB0007D006D005D004D003D002D001D000D083
:1026BB00D0D082D083D0F0D0E032C0E0C0F0C08365
:1026CB00C082C0D075D000C000C001C002C003C022
:1026DB0004C005C006C007900039120079D007D09E
:1026EB0006D005D004D003D002D001D000D0D0D07A
:1026FB0082D083D0F0D0E032C0E0C0F0C083C08283
:10270B00C0D075D000C000C001C002C003C004C05F
:10271B0005C006C007900015120079D007D006D06F
:10272B0005D004D003D002D001D000D0D0D082D0BD
:10273B0083D0F0D0E03212284470068D8AECF58CF1
:10274B0022EFB401068D8BECF58D22EFB402068DD2
:10275B00D7ECF5D622EFB403068DD5ECF5D422EFEA
:10276B00B404058DD3ECF5D222A3F0A3F0A3F0A310
:10277B00F0A3F022900096E0FF900095E0FE74012C
:10278B00A806082290008AE0FFF42242543A005730
:10279B00543A0053543A00626F64792074656D703B
:1027AB003A005365742074656D703A00EF5407FF5F
:1027BB007401A8070822EF5407FE7401A80608222B
:1027CB00EF131313541F1422AD07AC06ED4C60131B
:1027DB00ED1DAE0470011C4E60097FE87E031227CD
:1027EB00EF80ED22EF4E6013EF1F70011E144E6051
:1027FB000A000000000000000080ED22C2C1D2C21E
:10280B00D2C40020A7FDC2C4C2C1C2C27FEE7E02E9
:10281B000227EFE47B0AFAF9F812081BEB2430FFCE
:10282B00D2C1120E9900C2C422900089EFF0122877
:10283B0007900089E0FF02284FC374FF9DFD74FFD2
:0D284B009CFCEF22C2C1120E9900C2C422F3
:00000001FF
