:060000000206AF0208AE8B
:03000B000208ECFC
:0300130002092AB5
:03001B000209686F
:030023000209A629
:03002B000209E4E3
:03003300020A229C
:03003B00020A6056
:03004300020A9E10
:03004B00020ADCCA
:03005300020B1A83
:03005B00020B583D
:03006300020B96F7
:10006B00020BD490008FE0F9A3E0FAA3E022A3E007
:07007B00FAA3E0F902031EE5
:03008300020C125A
:03008B00020C5014
:03009300020C8ECE
:03009B00020CCC88
:0300A300020D0A41
:1000AB00020D48C2D530F707B2D563F0FF05F0302B
:1000BB00E70CB2D5F4048463F0FF05F080018430C3
:1000CB00D502F40422BB010689828A83E022500206
:1000DB00E722BBFE02E32289828A83E49322BC00DF
:1000EB000BBE0029EF8DF084FFADF022E4CCF87548
:1000FB00F008EF2FFFEE33FEEC33FCEE9DEC984057
:10010B0005FCEE9DFE0FD5F0E9E4CEFD22EDF8F5F2
:10011B00F0EE8420D21CFEADF075F008EF2FFFED52
:10012B0033FD4007985006D5F0F222C398FD0FD54A
:10013B00F0EA22C2D5EC30E709B2D5E4C39DFDE469
:10014B009CFCEE30E715B2D5E4C39FFFE49EFE1294
:10015B0000E9C3E49DFDE49CFC80031200E930D56B
:10016B0007C3E49FFFE49EFE22C5F0F8A3E028F04E
:10017B00C5F0F8E582158270021583E038F022A3F2
:10018B00F8E0C5F025F0F0E582158270021583E0EA
:10019B00C838F0E822E88FF0A4CC8BF0A42CFCE953
:1001AB008EF0A42CFC8AF0EDA42CFCEA8EF0A4CDEE
:1001BB00A8F08BF0A42DCC3825F0FDE98FF0A42C02
:1001CB00CD35F0FCEB8EF0A4FEA9F0EB8FF0A4CFB5
:1001DB00C5F02ECD39FEE43CFCEAA42DCE35F0FD66
:1001EB00E43CFC2275F008758200EF2FFFEE33FE26
:1001FB00CD33CDCC33CCC58233C5829BED9AEC99F4
:10020B00E58298400CF582EE9BFEED9AFDEC99FC95
:10021B000FD5F0D6E4CEFBE4CDFAE4CCF9A88222DC
:10022B00B800C1B90059BA002DEC8BF084CFCECDFC
:10023B00FCE5F0CBF97818EF2FFFEE33FEED33FD35
:10024B00EC33FCEB33FB10D703994004EB99FB0F1A
:10025B00D8E5E4F9FA227818EF2FFFEE33FEED33F1
:10026B00FDEC33FCC933C910D7059BE99A4007EC69
:10027B009BFCE99AF90FD8E0E4C9FAE4CCFB2275B0
:10028B00F010EF2FFFEE33FEED33FDCC33CCC83344
:10029B00C810D7079BEC9AE899400AED9BFDEC9AA6
:1002AB00FCE899F80FD5F0DAE4CDFBE4CCFAE4C81E
:1002BB00F922EB9FF5F0EA9E42F0E99D42F0E89CB3
:1002CB0045F022E8600FECC313FCED13FDEE13FEBB
:1002DB00EF13FFD8F122ECF0A3EDF0A3EEF0A3EFB8
:1002EB00F022A8828583F0D083D0821203041203FC
:1002FB0004120304120304E473E493A3C583C5F04F
:10030B00C583C8C582C8F0A3C583C5F0C583C8C55E
:10031B0082C8228A838982E473EC8EF0A4CCC5F068
:10032B00CCCDF8EFA4CEC5F02DFDE43CFCE8A42E1B
:10033B00C8C5F03DFDE43CFCEFA4FFE5F028FEE46E
:10034B003DFDE43CFC227B007AE179F57805120255
:10035B002BAC00AD01AE02AF037B807A9679987817
:10036B000012022BAC00AD01AE02AF037B407A4210
:10037B00790F780012022BAC00AD01AE02AF037BFC
:10038B00A07A867901780012022BAC00AD01AE0287
:10039B00AF03E47B107A27F9F812022BAC00AD0106
:1003AB00AE02AF03E47BE87A03F9F812022BAC0040
:1003BB00AD01AE02AF03E47B64FAF9F812022BAC89
:1003CB0000AD01AE02AF0322E4FAF9F8900000E0B1
:1003DB00FCA3E0FDA3E0FEA3E0FF02022B1200E969
:1003EB007E007F64CFCDCFCECCCE1200E97E007FD6
:1003FB000ACFCDCFCECCCE1200E9ED2430FF020ECA
:10040B0000C284C285EF139297EFC313139296EF3A
:10041B001313543F139295EF131313541F1392940A
:10042B00EFC4540F139293EFC4135407139292EF2C
:10043B00C413135403139291EFC4131313540113E6
:10044B009290D2852212013E7E007F64CFCDCFCE1B
:10045B00CCCE12013E7E007F0ACFCDCFCECCCE02CA
:10046B00013ED2C5C285C284C283C297C296C295D1
:10047B00C294C293C292C291C2907F0F7E00227F20
:10048B0038120E147F057E0022900000E0FEA3E0E0
:10049B00FF7C000200E9900000E0FEA3E0FFC3E454
:1004AB009FFFE49E900000F0A3EFF022900000E08D
:1004BB00FF0200AE900000E0FBA3E0FAA3E0F9021C
:1004CB0000D075F00A1200AEAFF0EF227E037FE88A
:1004DB00CFCDCFCECCCE22900000E0C364809480F1
:1004EB0022C3900000E0648094802290008FEBF098
:1004FB00A3EAF0A3E9F0EFB4140040030205F69071
:10050B000511F828287302054D02055602055F02F6
:10051B000568020570020578020580020588020550
:10052B00900205980205A00205A80205B00205B8C5
:10053B000205C00205C80205D00205D80205E0027B
:10054B0005E812006E90001E0205EE12006E900080
:10055B002D0205EE12006E9000210205EE12006EC8
:10056B00900030807E12006E90000C807612006E30
:10057B00900000806E12006E900006806612006E76
:10058B00900003805E12006E90000F805612006E7A
:10059B00900009804E12006E900024804612006E6F
:1005AB00900027803E12006E900033803612006E52
:1005BB0090001B802E12006E90002A802612006E77
:1005CB00900015801E12006E900018801612006E9F
:1005DB00900036800E12006E900039800612006E6D
:1005EB00900012C9F0A3EAF0A3E9F02242007000D8
:1005FB0000420072000042007400004200760000CE
:10060B00420078000042007A000042007C00004269
:10061B00007E000042008000004200820000C1000A
:10062B00C101C102C103C10442006600004200685F
:10063B00000042006A000042006C000042006E00A5
:10064B000044003C00000000440044000000004453
:10065B0000400000000044004C0000000044004833
:10066B00000000004400500000000042005A00004F
:10067B004200600000420054000042005C00004257
:10068B0000620000420056000042005E0000420083
:10069B006400004200580000C105460092000000B3
:1006AB0000000000787FE4F6D8FD7581200206F685
:1006BB00020814E493A3F8E493A34003F68001F239
:1006CB0008DFF48029E493A3F85407240CC8C33340
:1006DB00C4540F4420C8834004F456800146F6DF0F
:1006EB00E4800B01020408102040809005F7E47EA3
:1006FB00019360BCA3FF543F30E509541FFEE49304
:10070B00A360010ECF54C025E060A840B8E493A3CA
:10071B00FAE493A3F8E493A3C8C582C8CAC583CAF5
:10072B00F0A3C8C582C8CAC583CADFE9DEE780BEAD
:10073B00EF706C53873FED7012E5984440547FF592
:10074B0098C29DD29CC299C298800AEDB40106E56D
:10075B009844C0F598438E01E59704540775F0044F
:10076B00A4FFAEF0E4FCFD90008BE0F8A3E0F9A34E
:10077B00E0FAA3E0FB1201A0A804A905AA06AB07A7
:10078B007F007E367D6E7C0112022BAD07AC067F9F
:10079B00021207AF7BFF7A0D79867F041204F6D223
:1007AB00ACD2AF22120E097010C28D438E805389CA
:1007BB00F08D8AECF58CD28C22EF64017010C28F15
:1007CB00438E4053890F8D8BECF58DD28E22EF64C7
:1007DB0002700F438E048DD7ECF5D6538EF7438EF4
:1007EB001022EF6403700F43D1028DD5ECF5D45377
:1007FB00D1FB43D10822EFB4040E43D1208DD3ECAF
:10080B00F5D253D1BF43D18022D2B6D2B7C290908A
:10081B00008B1202ED00002580E4FDFF12073B90D8
:10082B000092E0B4A5F9A3E0B45AF4A3E0B404EF4A
:10083B00A3E0B4B1EAA3E0B4B5E5A3E0B4AAE0C287
:10084B00B6C2B77F327E00120DBFD2B6D2B7E490DC
:10085B000092F0A3F0A3F0A3F0A3F0A3F080C0C22A
:10086B00D5E830E70FB2D5E4C39BFBE49AFAE499E1
:10087B00F9E498F8EC30E717B2D51208A012022B66
:10088B00E4C39BFBE49AFAE499F9E498F880031229
:10089B00022B30D50DE4C39FFFE49EFEE49DFDE4E7
:1008AB009CFC22C0E0C0F0C083C082C0D075D000D9
:1008BB00C000C001C002C003C004C005C006C00711
:1008CB0090001E120079D007D006D005D004D003BB
:1008DB00D002D001D000D0D0D082D083D0F0D0E0E5
:1008EB0032C0E0C0F0C083C082C0D075D000C00061
:1008FB00C001C002C003C004C005C006C007900001
:10090B002D120079D007D006D005D004D003D00229
:10091B00D001D000D0D0D082D083D0F0D0E032C084
:10092B00E0C0F0C083C082C0D075D000C000C00151
:10093B00C002C003C004C005C006C007900021124E
:10094B000079D007D006D005D004D003D002D00157
:10095B00D000D0D0D082D083D0F0D0E032C0E0C075
:10096B00F0C083C082C0D075D000C000C001C002EF
:10097B00C003C004C005C006C00790003012007948
:10098B00D007D006D005D004D003D002D001D000C0
:10099B00D0D0D082D083D0F0D0E032C0E0C0F0C055
:1009AB0083C082C0D075D000C000C001C002C0039C
:1009BB00C004C005C006C00790000C120079D00718
:1009CB00D006D005D004D003D002D001D000D0D0B7
:1009DB00D082D083D0F0D0E032C0E0C0F0C083C072
:1009EB0082C0D075D000C000C001C002C003C004DB
:1009FB00C005C006C007900000120079D007D006D2
:100A0B00D005D004D003D002D001D000D0D0D082FA
:100A1B00D083D0F0D0E032C0E0C0F0C083C082C041
:100A2B00D075D000C000C001C002C003C004C00517
:100A3B00C006C007900006120079D007D006D0057B
:100A4B00D004D003D002D001D000D0D0D082D0833C
:100A5B00D0F0D0E032C0E0C0F0C083C082C0D0750F
:100A6B00D000C000C001C002C003C004C005C00656
:100A7B00C007900003120079D007D006D005D00430
:100A8B00D003D002D001D000D0D0D082D083D0F010
:100A9B00D0E032C0E0C0F0C083C082C0D075D000BF
:100AAB00C000C001C002C003C004C005C006C0071F
:100ABB0090000F120079D007D006D005D004D003D8
:100ACB00D002D001D000D0D0D082D083D0F0D0E0F3
:100ADB0032C0E0C0F0C083C082C0D075D000C0006F
:100AEB00C001C002C003C004C005C006C00790000F
:100AFB0009120079D007D006D005D004D003D0025C
:100B0B00D001D000D0D0D082D083D0F0D0E032C092
:100B1B00E0C0F0C083C082C0D075D000C000C0015F
:100B2B00C002C003C004C005C006C0079000241259
:100B3B000079D007D006D005D004D003D002D00165
:100B4B00D000D0D0D082D083D0F0D0E032C0E0C083
:100B5B00F0C083C082C0D075D000C000C001C002FD
:100B6B00C003C004C005C006C0079000271200795F
:100B7B00D007D006D005D004D003D002D001D000CE
:100B8B00D0D0D082D083D0F0D0E032C0E0C0F0C063
:100B9B0083C082C0D075D000C000C001C002C003AA
:100BAB00C004C005C006C007900033120079D007FF
:100BBB00D006D005D004D003D002D001D000D0D0C5
:100BCB00D082D083D0F0D0E032C0E0C0F0C083C080
:100BDB0082C0D075D000C000C001C002C003C004E9
:100BEB00C005C006C00790001B120079D007D006C5
:100BFB00D005D004D003D002D001D000D0D0D08209
:100C0B00D083D0F0D0E032C0E0C0F0C083C082C04F
:100C1B00D075D000C000C001C002C003C004C00525
:100C2B00C006C00790002A120079D007D006D00565
:100C3B00D004D003D002D001D000D0D0D082D0834A
:100C4B00D0F0D0E032C0E0C0F0C083C082C0D0751D
:100C5B00D000C000C001C002C003C004C005C00664
:100C6B00C007900015120079D007D006D005D0042C
:100C7B00D003D002D001D000D0D0D082D083D0F01E
:100C8B00D0E032C0E0C0F0C083C082C0D075D000CD
:100C9B00C000C001C002C003C004C005C006C0072D
:100CAB00900018120079D007D006D005D004D003DD
:100CBB00D002D001D000D0D0D082D083D0F0D0E001
:100CCB0032C0E0C0F0C083C082C0D075D000C0007D
:100CDB00C001C002C003C004C005C006C00790001D
:100CEB0036120079D007D006D005D004D003D0023D
:100CFB00D001D000D0D0D082D083D0F0D0E032C0A1
:100D0B00E0C0F0C083C082C0D075D000C000C0016D
:100D1B00C002C003C004C005C006C0079000391252
:100D2B000079D007D006D005D004D003D002D00173
:100D3B00D000D0D0D082D083D0F0D0E032C0E0C091
:100D4B00F0C083C082C0D075D000C000C001C0020B
:100D5B00C003C004C005C006C00790001212007982
:100D6B00D007D006D005D004D003D002D001D000DC
:100D7B00D0D0D082D083D0F0D0E03230982EC29831
:100D8B00900093E0900092F0900094E0900093F02C
:100D9B00900095E0900094F0900096E0900095F014
:100DAB00900097E0900096F0A3E599F0309904C27B
:100DBB0099C20522AD07AC06ED4C6013ED1DAE04D8
:100DCB0070011C4E60097FE87E03120DDB80ED2263
:100DDB00EF4E6013EF1F70011E144E600A000000EF
:100DEB00000000000080ED22E47B0AFAF9F8120201
:100DFB002BEB2430FFD28312040C00C28522C37468
:100E0B00FF9DFD74FF9CFCEF22C28312040C00C2F9
:020E1B0085222E
:00000001FF
